:020000040800F2
:10000000E85A002079020008E52B0008652700085F
:10001000E12B00086D0500089D310008000000007C
:10002000000000000000000000000000612C00083B
:100030003906000800000000F12B00088D2C000894
:10004000930200089302000893020008930200083C
:10005000930200089302000893020008930200082C
:10006000930200089302000893020008930200081C
:10007000930200089302000893020008930200080C
:1000800093020008930200089302000893020008FC
:10009000710500087D05000893020008930200081E
:1000A00093020008930200089302000893020008DC
:1000B00093020008930200089302000893020008CC
:1000C00093020008930200089302000893020008BC
:1000D00093020008930200089302000893020008AC
:1000E000930200089302000893020008930200089C
:1000F000930200089302000893020008930200088C
:10010000930200089302000893020008930200087B
:10011000930200089302000893020008930200086B
:10012000930200082D0600089302000893020008BD
:10013000930200089302000893020008930200084B
:10014000890500089505000893020008930200083D
:1001500093020008930200089302000891310008FE
:10016000930200089302000893020008930200081B
:1001700093020008930200089302000800000000A8
:1001800093020008930200089302000893020008FB
:1001900093020008930200089302000893020008EB
:1001A00000000000000000009302000800F002F8C8
:1001B00000F052F814A696E8000CB244B344DA45B5
:1001C00001D100F049F8BAE80F000FA696E8300018
:1001D000A5EB040504EB0607AAEB0704A7F101074A
:1001E0004FEA15154FEA3414A4F10104AC4201D3CF
:1001F00000F032F813F0010F18BFFB1A43F00103AF
:1002000000F001F8DBE718471C4500003C45000002
:10021000103A24BF78C878C1FAD8520724BF30C832
:1002200030C144BF04680C60704700007047000094
:100230000023002400250026103A28BF78C1FBD8EF
:10024000520728BF30C148BF0B6070471FB504F08C
:1002500045FA1FBD10B510BD00F05AF91146FFF761
:10026000F5FF03F015F900F078F903B4FFF7F2FF9A
:1002700003BC03F00DF90000094880470948004716
:10028000FEE7FEE7FEE7FEE7FEE7FEE7FEE7FEE746
:10029000FEE7FEE704480549054A064B70470000A3
:1002A000612D0008AD010008E8420020E85A002056
:1002B000E8520020E852002053EA020C00F0698066
:1002C0002DE9F04B4FF00006002B1FBFB3FA83F56A
:1002D00003FA05F424FA05F65E4012BF1643B2FA9B
:1002E00082F502FA05F4C5F120051EBF22FA05FCCD
:1002F00044EA0C04203556EA044C4FEA144418BF73
:10030000641C4FF000084FF00009904271EB030CA1
:1003100039D3002919BFB1FA81F701FA07F6B0FA0B
:1003200080F700FA07F6C7F120071EBF20FA07FC86
:1003300046EA0C062037B6FBF4FCA7EB0507103F96
:1003400007F01F0BCBF120062CFA06F60CFA0BFB7C
:1003500044BFB3460026202FA4BF5E464FF0000BDB
:100360005BEA060C08BF4FF0010B19EB0B0948EBD9
:100370000608ABFB027C06FB02CC0BFB03CCC01BCC
:1003800071EB0C01C1E70B46024641464846BDE809
:10039000F08B13B5084318BF4FF0FF300146AFF3A1
:1003A0000080BDE81C407047032A40F2308010F006
:1003B000030C00F0158011F8013BBCF1020F624400
:1003C00098BF11F801CB00F8013B38BF11F8013B91
:1003D000A2F1040298BF00F801CB38BF00F8013B3E
:1003E00011F0030300F05A80083AC0F0088051F879
:1003F000043B083A51F804CBA0E80810F5E7121DB9
:100400005CBF51F8043B40F8043BAFF30080D207D7
:1004100024BF11F8013B11F801CB48BF11F8012BA3
:1004200024BF00F8013B00F801CB48BF00F8012BC6
:1004300070474FF0000200B51346944696462039A7
:1004400022BFA0E80C50A0E80C50B1F12001BFF48D
:10045000F7AF090728BFA0E80C5048BF0CC05DF8F3
:1004600004EB890028BF40F8042B08BF704748BF41
:1004700020F8022B11F0804F18BF00F8012B7047B5
:1004800070477047704710B500F03EF8006810BD27
:1004900010B5044600F038F8046010BD10B5203ADD
:1004A000C0F00B80B1E81850A0E81850B1E818501F
:1004B000A0E81850203ABFF4F5AF5FEA027C24BFF1
:1004C000B1E81850A0E8185044BF18C918C0BDE8DA
:1004D00010405FEA827C24BF51F8043B40F8043BA3
:1004E00008BF7047D20728BF31F8023B48BF11F858
:1004F000012B28BF20F8023B48BF00F8012B7047B2
:10050000004870471000002000487047100000208D
:100510007546FFF7F5FFAE4605006946534620F0E5
:100520000700854618B020B5FFF7B4FEBDE82040AF
:100530004FF000064FF000074FF000084FF0000B9F
:10054000AC46ACE8C009ACE8C009ACE8C009ACE80E
:10055000C00921F007018D46704710B50446AFF37E
:1005600000802046BDE81040FFF77FBEFEE7000098
:1005700040F2FC00C2F2000000F004B940F2FC00BE
:10058000C2F2000000F0FEB840F22410C2F20000F7
:1005900000F0F8B840F22410C2F2000000F0F2B807
:1005A0002DE9F04782B00C46054600F04DF8C8B37F
:1005B00040F2700640F2CC2940F2A00AC2F20006D6
:1005C000E846C2F20009C2F2000A04E028462146C9
:1005D00000F03AF830B3284621463246434600F050
:1005E00043F899F800000028F0D03168524603E043
:1005F000013802F10402E9D017683B68AB42F7D139
:100600007B6B9942F4D1D7F8390058B1326907F1C0
:100610002C00694687F83820FFF7C6FED7F8391056
:100620003846884702B0BDE8F087000040F24C1021
:10063000C2F2000000F04ABB7047000072B600BF73
:10064000FEE700007047000090F82020013A012AE0
:1006500084BF0020704700681022002908BF0C22C8
:10066000805800F003007047B0B590F82040013C7E
:10067000012C78D8046800290CBFE4682469A40719
:1006800077D004684FEA011C04F5D87555F80C4082
:1006900014F00404946055F80CE005EB011C19BF3C
:1006A0004FEADE0555604FEA5E551560DCF80050F4
:1006B000E64605F00205D5605EF8044F24075ABFF0
:1006C000DEF8004004F00F0408241461DEF8004056
:1006D0000029C4F307249461DEF800504FEA154561
:1006E0005561DCF808201A70026802EB0112D2F89A
:1006F000B8214FEA12225A70026802EB0112D2F8B6
:10070000B8214FEA12429A70026802EB0112D2F845
:10071000B8214FEA1262DA70026802EB0112D2F8D5
:10072000BC211A71026802EB0112D2F8BC214FEA17
:1007300012225A71026802EB0112D2F8BC214FEA70
:1007400012429A71026802EB0112D2F8BC214FEA00
:100750001262DA7100680CBF00F10C0100F11001A7
:10076000002020220AE000F1240101204FF4802221
:1007700004E000F1240101204FF400120B681A4339
:100780000A60B0BD2DE9F04F81B0044600684669AB
:10079000D0F804908768D0F80CB0D0F810A0D0F84A
:1007A0001880F10703D1002530071CD423E0F90796
:1007B00010D00121BA07816009D4780700F1AA801E
:1007C000380700F1B080204600F020FA02E0204611
:1007D00000F01EFA0025F80500F18480F80300F10E
:1007E000AA80300707D51BF0100004D0206845F41C
:1007F00000751021C160700708D51BF0080005D0F6
:1008000020680821C160204600F0F2F9B00706D543
:100810002068C068800702D0204600F0EBF970061F
:1008200007D51AF0100004D0206845F48065102127
:100830000161B00608D51AF0080005D0206808212B
:100840000161204600F0DAF9F00606D5206800695B
:10085000800702D0204600F0D3F9B00308D519F084
:10086000100005D0206810214160204600F0CCF92E
:10087000F00308D519F0080005D020680821416070
:10088000204600F0CFF9300440F18F805FEA4970D4
:1008900040F1888006F4807008EA102028435FEA5F
:1008A0008871014648BF41F00201B20558BF0146B8
:1008B0005FEA48700D4648BF45F00405700558BF13
:1008C0000D4630056ED518F070006BD01038000959
:1008D000052862D8DFE800F0035C5659535F45F005
:1008E00008055AE020684FF48071BA0581600AD487
:1008F000780512D4380519D4204600F08BF9F80396
:100900007FF56FAF17E0204600F086F9F8037FF51A
:1009100068AF10E04FF400655DE705F50055F8039A
:100920007FF55FAF07E04FF4805554E705F580454C
:10093000F8037FF556AF20684FF48031BA03816029
:100940000AD478030FD4380313D4204600F066F994
:1009500030073FF548AF4EE7204600F061F9300719
:100960003FF541AF47E705F5004530073FF53BAFA1
:1009700041E705F5803530073FF535AF3BE745F0FA
:1009800080050AE045F0200507E045F0400504E059
:1009900045F0100501E045F480752068816921F07B
:1009A000700181612068042141604DB1606A40EAB4
:1009B00005012046616201B0BDE8F04FFFF742BE7D
:1009C00001B0BDE8F08F0000002804BF012070478F
:1009D000B0B5044690F8200010B9204600F06EF83B
:1009E0002068016841F00101016000F0F3FB054659
:1009F00020684168C90705D100F0ECFB401B0B28BB
:100A0000F6D310E0016821F00201016000F0E2FB82
:100A1000054600BF2068416889070DD500F0DAFB64
:100A2000401B0B28F6D3606A052140F40030606259
:100A3000012084F82010B0BD217E0268012922F037
:100A4000800208BF80320260617E0268012922F0C4
:100A5000400208BF40320260A17E0268012922F0F4
:100A6000200208BF20320260E17E0268012922F0E4
:100A7000100218BF10320260217F0268012922F0A3
:100A8000080208BF08320260617F0268012922F073
:100A9000040208BF04320260D4E901C2D4E903357C
:100AA00061691A432A431143ACF101021143C16148
:100AB00000200121606284F82010B0BDB0B586B07E
:100AC000006846F60002C4F2000200219042CDE91F
:100AD0000411CDE90211019133D046F20041C4F274
:100AE0000001884240F0818040F28C01C2F2000196
:100AF0000A6843F64000C4F20200531C0B6052B96E
:100B000000210091016841F000710160016801F06D
:100B10000071009100990021009150F8101C1524DB
:100B200041F0010140F8101C50F8100C142500F0A1
:100B300001000090009800204FF4C051C4F2020060
:100B400037E043F64000C4F202000091016841F032
:100B500080610160016801F080610091009940F2BC
:100B60008C01C2F200010A68531C0B6052B90021CB
:100B70000091016841F000710160016801F00071AD
:100B8000009100990021009150F8101C412441F07F
:100B9000020140F8101C50F8100C402500F0020033
:100BA000009000980020C4F2020000F580604FF42D
:100BB00040510191022102910121039103210491ED
:100BC0000921059101A900F035FA284605210022E6
:100BD00000F08CFB284600F077FB20460521002220
:100BE00000F084FB204600F06FFB06B0B0BD0000B3
:100BF000704700000021FFF7D3BC000070470000E1
:100C00000121FFF7CDBC00007047000070470000D5
:100C100070470000704700007047000070470000F8
:100C2000704700007047000070B5866D044600F004
:100C3000D1FA94F83510022925D105462068216C97
:100C4000026822F016020260426922F080024261CC
:100C500009B9A16C19B1016821F0080101600168AE
:100C600021F00101016000BF20680068C0070ED0BC
:100C700000F0B0FA401B0628F6D320206065032060
:100C800084F835000CE080206065012008E0E06D0C
:100C90003F2101FA00F0B060012084F83500002007
:100CA000002184F8341070BD90F83510022909D164
:100CB000052180F835100068016821F0010101600C
:100CC000002070478021416501207047F0B581B058
:100CD0000021009140F20001C2F200010B68D0E94E
:100CE000166148F2B51537680822C1F64E358A40BC
:100CF0003A42A3FB05350CD003681C68640708D58D
:100D00001C6824F004041C60B260426D42F00102D1
:100D1000426501228A403A4208D003685B691B069B
:100D200004D5B260426D42F00202426504228A405C
:100D30003A4208D003681B689B0704D5B260426D35
:100D400042F00402426510228A403A4216D00168FD
:100D50000B681B0712D5B2600B680A685B0306D4E8
:100D6000D20506D40A6822F008020A6001E01103E5
:100D70003FD4016C11B1044688472046C26D202142
:100D800001FA02F33B4241D001680F68FF063DD5EE
:100D9000B36090F835700B68052F1AD123F0160355
:100DA0000B604B6923F080034B61036C0BB9836CC0
:100DB0001BB10B6823F008030B603F219140B16029
:100DC000012180F83510016D002280F83420D9BB54
:100DD0003EE00A685B0310D4D20512D40A6822F000
:100DE00010020A60012180F83510002180F83410CB
:100DF00007E0816C0029BED1C0E7110301D4416C2A
:100E000000E0C16B11B1044688472046416DF9B13D
:100E1000416DC90716D0052180F835100168AA0A6E
:100E20000B6823F001030B60009B01339342009396
:100E300002D80B68DB07F7D1012180F835100021BB
:100E400080F83410C16C19B101B0BDE8F04008471A
:100E500001B0F0BD2DE9F041044600F0BBF9C4B18A
:100E60000546022084F835000020216884F834000B
:100E7000086820F00100086020680168C9070BD0ED
:100E800000F0A8F9401B0528F6D9032120220320F1
:100E90007AE00120BDE8F081016848F23F02CFF21C
:100EA0001002D4E9013501EA020ED4E9032143EA34
:100EB0000E032B43D4E9056C1A43D4E90778114398
:100EC000314341EA0702616A42EA0802042942EA20
:100ED0000C0303D1D4E90B273A431343036042695F
:100EE000042922F0070241EA02012DD1D4E90A5374
:100EF00041EA050143B3BCF5005F08D0BCF1000F27
:100F000012D1022D16D0012D07D09DB119E0032D6D
:100F100017D8DFE805F00B0F0B02A3F1C072B2FA8D
:100F200082F252094AB90FE0032D02D2012222B9FE
:100F30000AE006D1C3F3006232B101214022012050
:100F400022E00022002AF8D100F0F8024AF6AB2392
:100F5000103ACAF6AA23A2FB033744F20E7341618A
:100F60003909C0F60003595C40F2FF3398435F2A09
:100F70004FF03F0288BF0430C4E9160102FA01F1C4
:100F80008160002201210020626584F83510BDE8EF
:100F9000F081000090F834C0BCF1010F04BF0220C2
:100FA000704770B54FF0010C80F834C0D0F858E0AD
:100FB00090F835C0BCF1010F37D14FF0020C80F82A
:100FC00035C04FF0000CC0F854C0D0F800C08468A1
:100FD000056CC06DDCF80060402C26F48026CCF84F
:100FE0000060CCF804300B4604BF13460A463F218C
:100FF00001FA00F0CCF80830CCF80C20CEF808004C
:10100000DCF8000040F01600CCF800002DB1DCF850
:10101000000040F00800CCF80000DCF8000040F0D0
:101020000100CCF80000002070BD002180F83410D1
:10103000022070BD2DE9F04F83B000F1200200F1D5
:101040003E4742F20045009207F1FF77C4F20205E5
:101050000A224FEAB726A84208BF0922092E38BF44
:101060004FEAB72200274FF0000A4FF00008019224
:101070000AE000BF08F101080AF1020AB8F1100FF6
:1010800007F1040700F09D800D68012202FA08FCB8
:1010900015EA0C09EED04D68032205F0030BABF105
:1010A0000106012E02FA0AFE10D88668CC6826EAEC
:1010B0000E0604FA0AF4344384604468C5F300154C
:1010C00024EA0C0605FA08F52E434660BBF1030F2F
:1010D0001BD0C6688D6826EA0E0605FA0AF52E436F
:1010E000BBF1020FC66010D16FF00302009D02EA4F
:1010F000580655F806C007F01C040F220B69A240E1
:101100002CEA0202A3401A43AA5102684B6822EA61
:101110000E0203F0030606FA0AF6324313F4403FC8
:101120000260A7D0002243F644030292C4F20203F5
:101130001A6843F6004442F480421A601A68C4F206
:10114000010402F480420292029A28F003024FF650
:10115000084C2244CFF6FF7C52F80C3007F00C0606
:101160000F25B540AB43019D05FA06F6334342F81F
:101170000C30A2684B6842EA090643F60C4CDD02CB
:1011800058BF22EA0906A660C4F2010CDCF8002070
:101190009D0242EA090658BF22EA0906CCF800601F
:1011A00062689D0342EA090658BF22EA09066660A2
:1011B0002268DB0342EA090658BF22EA09062660D4
:1011C00058E703B0BDE8F08F002A08BF0904816129
:1011D0007047000043F6D070C2F20000006870470C
:1011E00040F2040043F6D071C2F20000C2F20001E6
:1011F00000780A68104408607047000080B543F624
:101200000040C4F20200016841F40071016001680D
:1012100041F480610160016841F480710160032044
:1012200000F090F80F2000F005F800F02BF80020F7
:1012300080BD0000B0B540F20402C2F2000240F2EC
:1012400000011278C2F200014FF47A730968B3FB0F
:10125000F2F20446B1FBF2F1084600F07BFB0F2CE2
:101260004FF001050CD858B94FF0FF30214600224D
:10127000002500F03BF840F20800C2F200000460D4
:101280002846B0BD82B0002043F640010190C4F270
:1012900002014A6842F480424A604A6802F480428D
:1012A0000192019A00900868002240F08050086086
:1012B00008680F2100F08050009000986FF0010046
:1012C00002B000F013B80000002848BF704700F0DB
:1012D0001F01012202FA01F11C2202EAD0004EF2A3
:1012E0000012CEF2000281507047000010B54EF699
:1012F0000C5CCEF2000CDCF80030C3F3022E8EF052
:101300000704042C28BF0424BEF103034FF0FF3E62
:101310000EFA04F438BF0023A14399400EFA03F3F8
:101320009A43114300F1604200F00F03090102F5F6
:101330006442043B6344002848BF03F10C0211706F
:1013400010BD00004EF60C51CEF200010A684FF6B7
:10135000FF031A4060F30A2242F0806040F0FD7003
:101360000860704770B582B00020019043F64000DD
:10137000C4F202000168402641F08051016000681B
:10138000C4F20E2600F080500190019847F2040547
:101390000120C4F200053060FFF71CFF044600BFC7
:1013A0002868C00306D4FFF715FF001BB0F57A7F4D
:1013B000F6D90EE001207060FFF70CFF044600BF75
:1013C0002868800308D4FFF705FF001BB0F57A7F7B
:1013D000F6D9032002B070BD002002B070BD00003D
:1013E000002804BF012070472DE9F04143F60808AA
:1013F000C4F202080446D8F8F8030D4600F00F00C6
:10140000884207D288F8F853D8F8F80300F00F00A4
:10141000A84276D12068810717D5410705D5D8F8AD
:10142000001041F4E051C8F80010010705D5D8F8C4
:10143000001041F46041C8F80010D8F80010A2680C
:1014400021F0F0011143C8F80010C0073FD1D8F8CF
:10145000F80300F00F00A84207D988F8F853D8F82D
:10146000F80300F00F00A8424BD12068410707D5D0
:10147000D8F80010E26821F4E0511143C8F80010D8
:10148000000708D5D8F80000216920F4604040EA40
:10149000C100C8F8000000F07BF8D8F8001044F252
:1014A000F662C1F30311C0F60002515C40F2000283
:1014B00020FA01F140F20800C2F200000068C2F216
:1014C00000021160FFF7B6FE0020BDE8F081606801
:1014D000811E022907D258F8081C89015CBF01202F
:1014E000BDE8F08110E0012807D158F8081C8903F5
:1014F0005CBF0120BDE8F08106E058F8081C8907B0
:1015000002D40120BDE8F081D8F8001021F00301D9
:101510000843C8F80000FFF75DFE064641F2883731
:10152000D8F80000616800F00C00B0EB810F8ED09D
:10153000FFF750FE801BB842F2D90320BDE8F081CE
:1015400040F2000043F60801C2F20000C4F20201BA
:101550000068096844F20672C1F38221C0F60002F5
:10156000515CC8407047000040F2000043F608019B
:10157000C2F20000C4F202010068096844F2067277
:10158000C1F34231C0F60002515CC8407047000010
:1015900010B543F60404C4F20204606800F00C00C5
:1015A00008280AD0042819BF42F20040C0F2F40013
:1015B00041F60030C0F2B70010BD206821682368F2
:1015C000490241F60031C0F2B70100F03F02C3F317
:1015D00088105CBF42F20041C0F2F401A1FB00019F
:1015E0000023FEF769FE21680222C1F3014102EBEC
:1015F0004101B0FBF1F010BD002804BF012070478D
:101600002DE9F04182B00446007843F60006C00799
:10161000C4F2020649D0B06800F00C00042809D1D9
:101620003068800341D5606800283ED1012002B0B7
:10163000BDE8F081B06800F00C00082802D17068A5
:101640004002EDD465683068B5F5A02F05D0B5F53A
:10165000803F09D140F480300CE040F480203060BD
:10166000306840F4803005E020F48030306030682D
:1016700020F480203060FFF7ADFD002D054611D02D
:101680003068800311D4FFF7A5FD401B6428F7D90B
:1016900028E100BFFFF79EFD401B64284FF00300C8
:1016A00000F2E08030688003F4D4207880071BD5F6
:1016B000B06810F00C0F09D0B06800F00C000828DA
:1016C00040F085807068400200F1818030688007BA
:1016D00003D5E068012840F09A803068216920F045
:1016E000F80040EAC10030602078000734D4207848
:1016F000400746D4A5695DB3B06800F00C00082827
:1017000040F09C80012D00F082807068E16900F457
:1017100080028A427BD1216A00F03F028A4276D160
:1017200047F6C071626A0140B1EB821F6FD1A16AB6
:101730004FF6FF73C903994300F44032A1F580319D
:101740008A4264D1E16A00F07060B0EB016F5ED153
:10175000002002B0BDE8F081606900285BD0002065
:10176000C4F247200121C0F8801EFFF733FD054673
:10177000706F8007BBD4FFF72DFD401B0228F7D9FF
:10178000B0E0306C5FEAC0080AD400200190306CF1
:1017900040F080503064306C00F08050019001982F
:1017A00047F20007C4F200073868C00526D438683D
:1017B00040F480703860FFF70DFD05463868C005BD
:1017C0001CD4FFF707FD401B0228F7D98AE0E06828
:1017D000002840F20000C4F2472053D001210160EC
:1017E000FFF7F8FC054600BF306880073FF575AF8E
:1017F000FFF7F0FC401B0228F6D973E0A568306FB4
:10180000052D51D0012D56D140F0010059E00120A5
:1018100002B0BDE8F0810020C4F247200021C0F8EA
:10182000801EFFF7D7FC0546706F80077FF55FAF1E
:10183000FFF7D0FC401B0228F6D953E00027C4F282
:10184000472700203866FFF7C5FC022D05460DD15D
:10185000306880015DD5FFF7BDFC401B02284FF0CA
:101860000300F5D902B0BDE8F08100BF3068800107
:101870007FF56EAFFFF7AEFC401B02284FF0030070
:10188000F4D9EFE700210160FFF7A4FC054600BF93
:10189000306880077FF528AFFFF79CFC401B0228CB
:1018A0004FF00300F4D9DDE740F004003067306FFB
:1018B00040F0010005E020F001003067306F20F0BB
:1018C00004003067FFF786FC002D054641F288379B
:1018D00013D000BF306F800712D4FFF77BFC401B92
:1018E000B842F7D9032002B0BDE8F081FFF772FCDF
:1018F000401BB8424FF00300B4D8306F8007F5D4D6
:10190000B8F1000F3FF5F6AE306C20F08050306437
:10191000F0E604F11C052FCD084340EA8210D903FC
:101920004FF6FF729143A1F5803140EA056008430C
:10193000706001203866FFF74DFC04463068800176
:101940003FF506AFFFF746FC001B02284FF00300EF
:10195000F4D987E7411E0020B0EB116F1CBF0120B6
:1019600070474EF21002CEF2000251604EF6235143
:10197000CEF20001F0230B700721906011607047D8
:1019800090F83C20012A4FF0020255D010B50123F7
:1019900080F83C3080F83D200268D2F804E0D2F8AC
:1019A00008C00C682EF07003234341F2FF74C4F2A8
:1019B0000004A24253600DDC40F2FF73C4F2000346
:1019C0009A4215DCB2F1804F29D040F20043C4F2B4
:1019D000000322E040F2FF33C4F201039A4212DC1A
:1019E00041F60003C4F200039A4218D0002312E02B
:1019F00040F60003C4F200039A4210D040F60043C0
:101A0000C4F2000309E044F20003C4F201039A4265
:101A100005D040F20043C4F201039A4204D1496860
:101A20002CF08003194391600121002280F83D10C1
:101A300080F83C20BDE8104010467047002804BFE5
:101A40000120704710B5044690F83D0028B90020E9
:101A500084F83C00204600F01FF8022084F83D0086
:101A60002068211D01F086F9012084F8460084F8E1
:101A70003E0084F83F0084F8400084F8410084F878
:101A8000420084F8430084F8440084F8450084F858
:101A90003D00002010BD000082B0006840F600410B
:101AA000C4F20001884216D040F60001C4F20001E1
:101AB00088421FD10020019043F64000C4F202008A
:101AC000016841F004010160006800F00400019029
:101AD000019802B070470020009043F64000C4F225
:101AE0000200016841F008010160006800F0080090
:101AF0000090009802B0704790F83C20012A4FF007
:101B000002026ED080B5012380F83C3080F83D2081
:101B1000D0F800C04FF67772DCF8083023EA0202F2
:101B2000CCF808200B684F2B28DC1F2B44DD202B22
:101B300045D0302B43D0402B40F0AC80D1F804E0AE
:101B4000C968DCF82030DCF8202022F00102CCF853
:101B50002020DCF8182022F0F00242EA011123F0E4
:101B60000A0242EA0E02CCF81810CCF82020DCF869
:101B7000081041F0470121F0300127E06F2B32DDE2
:101B8000B3F5005F73D0B3F5805F21D0702B40F0C8
:101B90008180D1E901E3C968DCF8082043EA0E033B
:101BA00022F47F4243EA01211143CCF80810DCF80B
:101BB000081041F0770109E00BB1102B6AD1DCF875
:101BC000081021F07001194341F00701CCF808100A
:101BD0000022012180F83D10002180F83C10BDE872
:101BE000804010467047502B21D0602B52D1D1F845
:101BF00004E0C968DCF82030DCF8202022F0100274
:101C0000CCF82020DCF8182022F4704242EA01319E
:101C100023F0A00242EA0E12CCF81810CCF82020D3
:101C2000DCF8081041F0670121F01001CEE7D1F88F
:101C300004E0C968DCF82030DCF8202022F0010242
:101C4000CCF82020DCF8182022F0F00242EA011142
:101C500023F00A0242EA0E02CCF81810CCF8202039
:101C6000DCF8081041F0570121F02001AEE7D1E97E
:101C700001E3C968DCF8082043EA0E0322F47F423E
:101C800043EA01211143CCF80810DCF8081041F4B4
:101C900080419BE701229CE770B586B0006840F662
:101CA0000041C4F2000100248842CDE90444CDE99A
:101CB0000244019420D040F60001C4F200018842A1
:101CC0004FD1002043F630010090C4F202010A68AF
:101CD00042F008020A60096801F0080100910099C9
:101CE0004FF4704101910221CDE90210049040F6B9
:101CF0000040C4F202002FE043F630000094C4F22A
:101D00000200016840F6004641F4807101600168FC
:101D1000C4F2020601F480710091009900940168F8
:101D2000022541F080010160006801A900F08000F7
:101D3000009000980120019006F5A050CDE90254D2
:101D4000CDE90445FFF776F94FF4E050CDE9010500
:101D500006F58050CDE903440221059101A9FFF762
:101D600069F906B070BD000090F83C30012B04BF4B
:101D7000022070474FEAB2020123032A80F83C3068
:101D800000F2F8802DE9F043DFE802F002AF3D7D7C
:101D9000036840F200461C6A1A6A24F0020422F02A
:101DA00001021A621A46D3F804C052F818EF8F687D
:101DB00043F48065C4F20106B54244EA070405D144
:101DC000CF6824F00C0427F004073C430F68B542A9
:101DD00006D1D1E905582CF440762E4346EA080C8A
:101DE0002EF073063743C3F804C09F614F6809693A
:101DF0005F631C629F6947F008079F619F6927F036
:101E000004079F61B0E0036840F200481C6A1A6A48
:101E100024F4007422F480721A621A46D3F804C0C3
:101E200052F81CEF8F6843F48065C4F20108454501
:101E300044EA072408D1CF6840F2FF463F0224F469
:101E4000406427EA06063443D1F80090454506D1A0
:101E5000D1E905562CF440572E4347EA061C2EF0D4
:101E6000730747EA0907C3F804C0DF614F680969CF
:101E7000DF631C62DF6947F00807DF61DF6927F075
:101E80000407DF6170E0036840F20045D3F820C02A
:101E90001A6A43F4806722F480521A621A465C6818
:101EA00052F81C8FD1F800E08E68C4F20105AF42F1
:101EB00004D14D6924F4804444EA85142CF400577D
:101EC00047EA063728F4E64646EA0E265C60DE61FD
:101ED0004E6809691E641F62DF6947F40067DF61AD
:101EE000DF6927F48067DF613DE0036840F2004866
:101EF0001C6A1A6A24F0200422F010021A621A46A0
:101F0000D3F804C052F818EF8F6843F48065C4F228
:101F10000108454544EA071407D1CF686FF0400631
:101F200024F0C00406EA07163443D1F80090454572
:101F300006D1D1E905562CF440672E4347EA860CBA
:101F40002EF4E64747EA0927C3F804C09F614F68AB
:101F500009699F631C629F6947F400679F619F69DD
:101F600027F480679F6109021368194300231160F9
:101F7000BDE8F043002180F83C101846704700008F
:101F8000002804BF0120704710B5044690F83D00BA
:101F900028B9002084F83C00204600F01FF80220F9
:101FA00084F83D002068211D00F0E4FE012084F843
:101FB000460084F83E0084F83F0084F8400084F82E
:101FC000410084F8420084F8430084F8440084F817
:101FD000450084F83D00002010BD0000704700005F
:101FE0004122082908BF4022042908BF3F220029B6
:101FF00008BF3E22825C012A1CBF012070470222DA
:1020000041B1082909D0042914BF80F8412080F883
:102010003F2004E080F83E2001E080F84020006886
:1020200001F01F010122036A02FA01F123EA010211
:102030000262026A0A4341F2FF71C4F2000188425F
:1020400002620BDC40F2FF71C4F20001884213DC33
:10205000B0F1804F45D040F2004115E040F2FF3230
:10206000C4F20102904214DC41F60003C4F2000302
:10207000984236D0002314E040F60001C4F200017B
:1020800088422ED040F60041C4F20001884228D098
:102090002EE044F20003C4F20103984221D040F242
:1020A0000043C4F20103984222D1436C884243F4B6
:1020B00000434364C6DD904207DC41F60001C4F2F0
:1020C000000188420DD0002107E044F20001C4F273
:1020D0000101884205D040F20041C4F2010188426A
:1020E00006D1816801F00701062904BF002070476E
:1020F000016841F0010101600020704790F8423012
:10210000202B0AD194460A4600294FF0010118BF3E
:10211000BCF1000F04D10846704702210846704701
:10212000B0B582B00121016300252221456382629E
:10213000A0F82CC0456480F84210C36B42F6597E6B
:1021400042F6D974C0F6000EC0F600040168C3E977
:102150000FE442F6B564C0F60004C3E91345043148
:10216000044618466346FEF715FF01952168204690
:102170000A680192496801910199216951B100BF32
:10218000016851E8031F026841F4807142E80313BB
:10219000002BF5D1016851E8051F026841F00101EB
:1021A00042E80513002BF5D1016851E8051F0268CC
:1021B00041F0400142E80513002BF5D1016B0129E4
:1021C00014D10021009101680A68009249680091C9
:1021D000009900BF016851E8031F026841F0100137
:1021E00042E80313002BF5D1002100E0012102B0E9
:1021F000BDE8B0400846704740F2CD22C2F200026E
:102200001278002A08BF704770B543F6C4760025DF
:10221000C2F2000656F82530D3F80441844205D0B6
:1022200001359542F6D3BDE870407047D3F80801F8
:1022300030B10C46804756F825002146FEF7F9F8E4
:1022400056F82510D1F8040191F80021FFF756FF48
:1022500056F82500D0F80401C06B0068016821F031
:1022600008010160BDE870407047000040F2CD21D8
:10227000C2F200010A78002A08BF7047B0B543F6E1
:10228000C4750024C2F2000555F82410D1F80431B9
:10229000834205D001349442F6D3BDE8B040704784
:1022A00091F800211846FFF729FF55F82400D0F8CF
:1022B0000401C06B0068016821F008010160BDE8FD
:1022C000B0407047B0B582B001680A68CC684B690D
:1022D00002F02F05202D04F0200505D125B102B014
:1022E000BDE8B04000F084BE5FEA027C1EBF03F090
:1022F000010E04F4907313EB0E0340D1036BD5066B
:1023000018D5012B16D114F0100313D0002201921E
:102310000A6801924A680192019A4969490647D4BC
:10232000818DC28DC38D002B18BF914240F010816A
:1023300002B0B0BD13062AD514F0800327D090F860
:102340004120212AF4D18268B2F5805F03D102696D
:10235000002A00F03081026A531C036212784A603E
:10236000C28C013A1304C284E2D1C86820F0800014
:10237000C860C86840F04000C86002B0B0BDD10776
:1023800018BF14F480715CD1510760D466E0520626
:10239000CED514F04002CBD0CA6822F04002CA6009
:1023A000202180F8411002B0BDE8B04000F0D8B95B
:1023B000C16B0A68526893B2002BB9D0858DAB42CD
:1023C000B6D2C285C969B1F5807F33D0016851E8C2
:1023D000031F026821F4807142E80313002BF5D13A
:1023E000016851E8051F026821F0010142E8051368
:1023F000002BF5D1016851E8051F026821F040016A
:1024000042E80513002BF5D1202180F8421000216D
:10241000016300BF016851E8031F026821F0100149
:1024200042E80313002BF5D1C16B04460846FEF7C2
:10243000FBFB204602214163818DC28D891A89B23E
:10244000AFE0416C41F001014164510706D5BEF196
:10245000000F03D0416C41F002014164910706D5A1
:10246000BEF1000F03D0416C41F004014164BCF1A6
:10247000000F06D55EEA050103D0416C41F008016A
:102480004164416C00293FF453AF910604D51DB15E
:10249000044600F0ADFD204601684969426C01F038
:1024A000400102F0080289184BD000BF016851E8D2
:1024B000031F026821F4907142E80313002BF5D149
:1024C000016851E8051F026821F0010142E8051387
:1024D000002BF5D1016B01290AD100BF016851E839
:1024E000031F026821F0100142E80313002BF5D10D
:1024F000202180F8421000210163016849694906E2
:1025000054D500BF016851E8051F026821F0400161
:1025100042E80513002BF5D1C16B002946D042F6E5
:10252000A962C0F60002044608460A65FEF7BCFB35
:1025300000283FF4FDAEE06B016D02B0BDE8B04095
:1025400008470446FFF792FE0020606402B0B0BD69
:10255000891A00BF026852E8032F036822F49072C0
:1025600043E80325002DF5D1026852E8052F0368E2
:1025700022F0010243E80525002DF5D1202280F844
:1025800042200022026300BF026852E8032F036862
:1025900022F0100243E80325002DF5D1022289B272
:1025A000426302B0BDE8B040FFF726BE02B0BDE80E
:1025B000B040FFF75BBE026A32F8023B6FF35F2365
:1025C0004B600262CCE60000002804BF0120704787
:1025D00010B5044690F8410028B9002084F8400066
:1025E000204600F021F8242084F841002068C168CA
:1025F00021F40051C160204600F05AFD20680169B5
:1026000021F490410161416921F02A014161C168D1
:1026100041F40051C16000202021606484F8411021
:1026200084F84210606310BD70B586B0016841F255
:102630000042C4F2010200269142CDE90466CDE9D0
:102640000266019632D044F60000C4F200008142D6
:1026500040F08080002043F630010090C4F2020177
:102660000A6942F480220A610A6902F48022009217
:10267000009A00900A6842F008020A60096801F0B6
:102680000801009100994FF4407101910221CDE9B8
:102690000210032004900720059040F60040C4F289
:1026A000020001A9FEF7C6FC06B070BD054643F660
:1026B00030000096C4F20200416941F020014161FE
:1026C000416901F02001009100990096016841F0F4
:1026D00040010160006801A900F0400000900098EE
:1026E0004FF4844001900220CDE9020603200490BB
:1026F0000820059040F60040C4F2020000F540605A
:10270000FEF798FC40F24C1446F22840C2F2000456
:10271000C4F202004FF0206184E843004FF480309F
:102720004FF48062C4E908062046C4E90362C4E9A4
:102730000566E661FEF78EFB002818BFFDF77EFFF9
:10274000472005210022EC63A563FEF7CFFD47205B
:10275000FEF7BAFD06B070BD70470000704700007C
:1027600070470000FEE7000010B540F2FC0046F2A2
:102770000041C2F20000C4F20001092200234FF020
:10278000012480E80E0000F10C014FF4803C4FF46E
:10279000801E81E8085084618383FEF715F90028C4
:1027A00008BF10BDBDE81040FDF748BF10B540F2AE
:1027B000241046F60001C2F20000C4F20001092212
:1027C00000234FF0012480E80E0000F10C014FF4CB
:1027D000803C4FF4801E81E8085084618383FEF7BB
:1027E000F3F8002808BF10BDBDE81040FDF726BF74
:1027F00080B582B00020019043F63000C4F20200A0
:102800000168002241F4800101600068052100F4A4
:102810008000019001983920FEF768FD392002B050
:10282000BDE88040FEF750BD80B588B00B4802AFD0
:1028300001900AA000F1040E9EE80E50806987E81E
:102840000E50079001A8002100F0FAFE40F2F801B6
:10285000C2F20001086008B080BD00BF1647000842
:10286000852C00080000000000000000800000002F
:10287000000000000000000070B586B0002543F69F
:1028800030000595CDE90355CDE901550095C4F219
:102890000200016842F2000441F040010160016859
:1028A000C4F2020401F04001009100990095016812
:1028B000002241F00101016001684FF4007601F04F
:1028C0000101009100990095016841F48071016057
:1028D000016801F48071009100990095016841F050
:1028E00080010160016801F080010091009900956C
:1028F000016841F008010160016801F008010091E0
:1029000000990095016841F00201016000684FF4F0
:10291000007100F00200009000982046FEF754FC81
:102920000120CDE9020501A9204601960495FEF794
:1029300081FB06B070BD000010B58EB040F2AC1047
:102940000021C2F2000040F6000242F20F740D9125
:10295000CDE90B11CDE90911CDE90711CDE905113B
:10296000CDE90311CDE90111C4F200025923C0E9F8
:10297000021401618021C0E900238161FFF75EF844
:10298000002818BFFDF75AFE4FF480500A9040F21D
:10299000AC10C2F200000AA9FFF7AEF8002818BF79
:1029A000FDF74CFE40F2AC10C2F20000FFF7E8FA6F
:1029B000002818BFFDF742FE40F2AC100024C2F21E
:1029C000000008A9CDE90844FEF7DAFF002818BF87
:1029D000FDF734FE6020CDE9010440F2AC10C2F2F4
:1029E000000001A9002203940594FFF7BDF9002817
:1029F00018BFFDF723FE40F2AC10C2F2000001A99F
:102A00000422FFF7B1F9002818BFFDF717FE40F2C6
:102A1000AC10C2F2000001A90822FFF7A5F90028B6
:102A200018BFFDF70BFE40F2AC10C2F2000001A986
:102A30000C22FFF799F9002818BFFDF7FFFD40F2BF
:102A4000AC10C2F20000FFF727F90EB010BD000075
:102A500010B58EB040F2F4100021C2F2000040F632
:102A6000004242F20F740D91CDE90B11CDE909112D
:102A7000CDE90711CDE90511CDE90311CDE901112A
:102A8000C4F200025923C0E9021401618021C0E9A7
:102A900000238161FEF7D2FF002818BFFDF7CEFDAD
:102AA0004FF480500A9040F2F410C2F200000AA9DC
:102AB000FFF722F8002818BFFDF7C0FD40F2F41020
:102AC000C2F20000FFF75CFA002818BFFDF7B6FD60
:102AD00040F2F4100024C2F2000008A9CDE9084435
:102AE000FEF74EFF002818BFFDF7A8FD6020CDE9D6
:102AF000010440F2F410C2F2000001A90022039484
:102B00000594FFF731F9002818BFFDF797FD40F253
:102B1000F410C2F2000001A90422FFF725F90028F1
:102B200018BFFDF78BFD40F2F410C2F2000001A9BE
:102B30000822FFF719F9002818BFFDF77FFD40F2C2
:102B4000F410C2F2000001A90C22FFF70DF90028D1
:102B500018BFFDF773FD40F2F410C2F20000FFF75A
:102B60009BF80EB010BD000080B540F23C2044F64A
:102B70000001C2F20000C4F2000100234FF00C0C6F
:102B80004FF4E13280E80E00C0E90333C0E905C329
:102B9000C361FFF719FD002808BF80BDBDE8804074
:102BA000FDF74CBD80B540F2842041F20041C2F2F5
:102BB0000000C4F2010100234FF00C0C4FF4E1328D
:102BC00080E80E00C0E90333C0E905C3C361FFF725
:102BD000FBFC002808BF80BDBDE88040FDF72EBD8E
:102BE000FEE70000FEE7000000000000000000001B
:102BF000EFF30980BFF36F8F154B1A681EF0100FAB
:102C000008BF20ED108A20E9F04F10602DE909007F
:102C10004FF0500080F31188BFF34F8FBFF36F8FD9
:102C200001F0F8F84FF0000080F31188BDE80900CA
:102C300019680868B0E8F04F1EF0100F08BFB0EC3C
:102C4000108A80F30988BFF36F8F704700BF00BF01
:102C5000D002002000000000000000000000000082
:102C6000074B19680868B0E8F04F80F30988BFF394
:102C70006F8F4FF0000080F31188704700BF00BFD6
:102C8000D0020020012000F0CDFCFBE780B5FEF76C
:102C9000A7FA01F0C7FA012808BF80BDBDE880404F
:102CA00001F094B910B592B006AC20463021FDF782
:102CB000C0FB002043F640010590CDE90300CDE9BB
:102CC00001000090C4F202010A6842F080520A60DA
:102CD000096801F0805100910099009047F20000CE
:102CE000C4F20000016841F44041016000684FF403
:102CF000800100F4404000900098012006904FF4BD
:102D000080300D910621079002200E91B4210C9085
:102D1000CDE90F10042011902046FEF76DFC10B194
:102D200072B600BFFEE7FEF71DFB10B172B600BF22
:102D3000FEE70F20019002200290002003904FF444
:102D4000A05004904FF48050059001A80521FEF793
:102D500047FB10B172B600BFFEE712B010BD000015
:102D60004EF68850CEF20000016841F47001016017
:102D70007047000010B540F6FF3E0368C4F2000E35
:102D800040F2004C7045C4F2010C0FDCB0F1804FF2
:102D900019D040F20042C4F20002904213D040F633
:102DA0000002C4F2000290420DD010E040F6004252
:102DB000C4F20002904206D0604504D00022C4F262
:102DC0000102904203D14A6823F07003134341F695
:102DD000FF72C4F2000290420FDC704521DCB0F1BA
:102DE000804F41D040F20042C4F2000290423BD0FA
:102DF00040F60002C4F2000234E043F6FF72C4F26F
:102E0000010290421EDC42F20002C4F20002904233
:102E10002AD00022C4F20102904225D0604523D07E
:102E200026E040F60042C4F2000290421CD041F677
:102E30000002C4F20002904216D041F60042C4F2F1
:102E400000020FE044F20002C4F2010290420BD0F3
:102E500044F60002C4F20102904205D044F200425E
:102E6000C4F20102904203D1CA6823F440731343B1
:102E700023F080024B69D1F800E08C681A430260AD
:102E8000C46240F48062C0F828E0624504BF09696A
:102E90000163012141610169C90708BF10BD0169D2
:102EA00021F00101016110BD806B0021C185C18449
:102EB000FFF7DCB9806B0168496990F84120212A4D
:102EC00011D111F080010ED00021C184016851E8B8
:102ED000031F026821F0C00142E80313002BF5D163
:102EE000202180F841100168496990F84220222A87
:102EF0002BD111F0400128D00021C185016851E893
:102F0000031F026821F4907142E80313002BF5D1EE
:102F1000016851E8051F026821F0010142E805132C
:102F2000002BF5D1016B01290AD100BF016851E8DE
:102F3000031F026821F0100142E80313002BF5D1B2
:102F4000202180F8421000210163416C41F0100102
:102F50004164FFF78BB900000168806B0968C905FF
:102F600030D40021C18500BF016851E8031F026809
:102F700021F4807142E80313002BF5D1016851E878
:102F8000051F026821F0010142E80513002BF5D16D
:102F9000016851E8051F026821F0400142E805136D
:102FA000002BF5D1202180F84210016B012909D1B5
:102FB000016851E8031F026821F0100142E8031381
:102FC000002BF5D100214163016B012918BFFFF7E8
:102FD000C3BB818DFFF710B9806B01214163016B89
:102FE000012918BFFFF7BABB818D4908FFF704B963
:102FF00090F84210222918BF70478268B2F5805FAE
:1030000002D1016900294AD0816AB2F5805F07D0F8
:103010000AB9026922B10268526802F07F0201E037
:10302000026852680A70816A01318162C18D01397A
:103030000A04C18500D070470168CA6822F02002E6
:10304000CA60CA6822F48072CA604A6922F001022A
:103050004A61202180F8421000214163026B012A5D
:1030600018BFFFF779BB81B0016300BF016851E869
:10307000031F026821F0100142E80313002BF5D171
:1030800001680A68D20606D5002200920A680092FA
:10309000496800910099818D01B0FFF7ADB80168D2
:1030A000826A49686FF35F2122F8021B8262BDE7E2
:1030B000B0B50446006804F108030ECB0569194356
:1030C00025F440552A4302616269E3691143C268ED
:1030D000194349F20C639A431143C1604169A269E3
:1030E00021F4407141F20043114340F48062C4F284
:1030F00001039A42416102D1FEF736FA01E0FEF780
:103100001FFAE1694FF69C7563681922C0F6FF75D6
:10311000B1F5004FA0FB02011CD15A00DB0FFDF7F7
:10312000CBF848F21F51C5F2EB11A0FB01235A095D
:1031300005F1805302FB0300322303EBC000A0FB28
:1031400001014FF4F87000EA111000EB0210C1F316
:10315000421118E09A009B0FFDF7AEF848F21F519C
:10316000C5F2EB11A0FB01235A0902FB0500322333
:1031700003EB0010A0FB0101F02000EA511000EB6E
:103180000210C1F34311084421688860B0BD0000FB
:1031900040F28420C2F20000FFF794B8FEE700007E
:1031A000322000F08DFDFBE743F6E87544F2E0269F
:1031B00044F2E42740F2E004C2F20005C2F2000645
:1031C000C2F20007C2F2000495ED000AD6ED000A33
:1031D00097ED001A204600F0BFF8322000F070FD95
:1031E000F2E7000040F26C34C2F20004204600F026
:1031F00011F8C82000F064FDF8E7000040F29434B4
:10320000C2F20004204600F005F8C82000F058FD86
:10321000F8E700002DE9F0412DED028B90ED010A59
:1032200090ED001ABCEEC03AB8EE432AB4EE401A54
:103230000446F1EE10FA13EE100AB4EE421A43DA25
:10324000F1EE10FA43DC30EE410AB2EE041A80EEE1
:10325000010A8700B0EE088ABCEEC00A10EE105AD0
:10326000461B4FEA850823E03C2000EE107AB8EEBA
:10327000400A80EE080A216A0968BCEEC00A10EE16
:10328000102A0A5094ED020ABCEEC00A10EE100A91
:1032900000F016FD00EE106A94ED001AB8EE400A38
:1032A000B4EE401A761BF1EE10FAA7EB08070EDC1D
:1032B000606A38B10828D7D0042814BF40203820CD
:1032C000D3E700BF3420D0E7F1EE10FA05DA20682A
:1032D0006060BDEC028BBDE8F08131EE400AB2EED9
:1032E000041A80EE010A8700B0EE088ABCEEC00A1C
:1032F00010EE105A46194FEA850822E03C2000EEF5
:10330000107AB8EE400A80EE080A216A0968BCEE1D
:10331000C00A10EE102A0A5094ED020ABCEEC00A50
:1033200010EE100A00F0CCFC00EE106A94ED001ACA
:10333000B8EE400AB4EE401A2E44F1EE10FA4744BB
:10334000C5DB606A30B10828D8D0042814BF4020FB
:103350003820D4E73420D2E710B52DED088B9FED4F
:103360004B3AB3EE098A80EE83AA80EE034AB7EEA9
:10337000009A81EE031A04462AEE0A0A24EE042A71
:1033800032EE000A24EE082A2AEE085A2AEE055ADE
:1033900022EE042A32EE052A39EE422A22EE002AD3
:1033A000B1EEC20A80ED004A80ED01AA80ED021A5A
:1033B000B4EE400AF1EE10FA5BD694ED001A30EE4E
:1033C0004A0AB1EE04AA94ED012A21EE0A3A23EE4C
:1033D000013A31EE431A22EE0A3A23EE022A31EE86
:1033E000421A80EE010A01F0A1F894ED01BA94EDC1
:1033F000001A2BEE0B2A21EE013A33EE022A21EEBF
:10340000083A23EE011A2BEE083A2BEE033A31EE7E
:10341000031A39EE411A21EE022AB1EEC21AE0680F
:1034200030EE000A80ED000AB4EE411AF1EE10FA17
:1034300024D63BEE410A94ED001A94ED012A21EEC8
:103440000A3A23EE013A33EE011A22EE0A3A23EE4B
:10345000022A32EE011A80EE010A01F067F8B8EE96
:10346000001A206920EE010A80ED000ABDEC088BED
:1034700010BDB0EE420A01F009F99EE7B0EE420A33
:1034800001F004F9B0EE401AD3E700BF0000C842D3
:10349000FDF7B4FEFFF706FCFFF7EEF9FFF7A8F91A
:1034A000FFF762F9FFF782F9FFF75EFBFFF77AFBA0
:1034B000FFF742FAFFF7CCFA00F012F840F2AC1432
:1034C000C2F2000420460021FEF78AFD20460421B6
:1034D000FEF786FDFFF7A8F900F0ACF8FEE7000064
:1034E000B0B582B040F2AC1440F29432C2F20004A3
:1034F000C2F20002042340F26C3040F2000E40F2AF
:10350000000CC2E9084340F2E003C2F200000021CF
:10351000C4F2873EC4F2343CC2F20003C0E9001199
:10352000C0E90211C0E9041EC0E9061CC0E9084157
:10353000C2E90011C2E90211C2E9041EC2E9061C77
:10354000C3E90011C3E902101A610A200421002214
:1035500000F054FD44F2A021C2F20001086040F2E4
:10356000900C43F2A110C2F2000C0624C0F6000039
:103570001DA14FF416720023CDE9004C00F07EFD32
:1035800040F2980443F2E510C2F200040325C0F6AD
:10359000000018A14FF47A720023CDE9005400F026
:1035A0006DFD40F29C0443F2FD10C2F20004C0F62F
:1035B000000014A14FF47A720023CDE9005400F00A
:1035C0005DFD40F2940543F2A910C2F20005052406
:1035D000C0F600000FA14FF4FA720023CDE90045B8
:1035E00000F04CFD02B0B0BD4F6E6D61696E5F546E
:1035F00061736B00536572766F315F4D6F746F72DC
:1036000000000000536572766F325F4D6F746F7209
:103610000000000072656D6F74655F636F6E746F9C
:10362000726C000080B5012898BF012000F048FBB3
:10363000002080BD80B500F0A5FB002080BD00000B
:10364000B0B584B043698E4693B1846984B105896D
:10365000D0E9001C026928B2843D18BFC51CCDE921
:10366000005360467346029400F066FD039010E03C
:103670000589D0E90013028A28B2843D18BFC51C11
:1036800003AC18467346CDE9005400F0F7FC01285E
:1036900002D1039804B0B0BD002004B0B0BD00005A
:1036A0002DE9F047044600F049FA43F6D470C2F21F
:1036B0000000016840F2D02701310160C2F200072A
:1036C000396844F2A42A40F2E026C2F2000AC2F2AB
:1036D000000651B1DAF8000000283DD13868E16AEF
:1036E000C06A884298BF3C6036E03C6000680128B0
:1036F00032D10025701900F0DBF914358C2DF9D189
:1037000043F6F078C2F20008404600F0D1F944F2E6
:103710000409C2F20009484600F0CAF944F28C20BC
:10372000C2F2000000F0C4F944F2C420C2F200006A
:1037300000F0BEF944F2B020C2F2000000F0B8F987
:1037400040F2D420C2F20000C0F8008040F2DC2039
:10375000C2F20000C0F8009043F6E070C2F2000030
:10376000016843F6E47201310160E06AC2F20002CE
:10377000012113688140194300EB8000116006EBC2
:103780008000211D00F0C2F900F0FCF9DAF8000019
:1037900088B13868E16AC06A884228BFBDE8F0870E
:1037A0004EF60450CEF200004FF080510160BFF39E
:1037B0004F8FBFF36F8FBDE8F087000043F6D875D9
:1037C00040F2E02A4EF6045844F2C42743F6D47679
:1037D000C2F20005C2F2000ACEF200084FF0805992
:1037E000C2F20007C2F2000603E000BF204600F06C
:1037F000E1F92868C8B100F0A1F9F868C468201D93
:1038000000F036F9306801383060286801382860E7
:1038100000F0B8F994F851000228EAD00128E5D068
:1038200070B9206B00F0C6F9E0E7DAF80000022872
:10383000DFD3C8F80090BFF34F8FBFF36F8FD8E787
:103840004FF0500080F31188BFF36F8FBFF34F8F9D
:10385000FEE7000008480068006880F308884FF021
:10386000000080F3148862B661B6BFF34F8FBFF3D8
:103870006F8F00DF00BF000008ED00E081B0002086
:10388000009040F20C00C2F2000000684FF05001BE
:1038900081F31188BFF36F8FBFF34F8F013001D0D9
:1038A000FEE700BF00980028FCD001B07047000080
:1038B000F0B581B0044600F0A5FA40F2D821C2F27A
:1038C00000010868002843F6EC70C2F2000028D11D
:1038D00040F2BC32C2F20002D31D560702F5705608
:1038E00018BF23F0070244F2A823C2F20003002508
:1038F000C3E9002526F00703A3F108060E6043E99B
:103900000255B31A0E68C2E9006344F27422C2F28F
:103910000002136044F21802C2F200021360012296
:1039200002700278002A18BF4FF00042224238D1BC
:103930003CB162071ABF24F0070202F110040834F8
:1039400000E0002444F2180EC2F2000EDEF800205F
:10395000631E934225D244F2A823C2F200031E68DC
:103960007568A54207D200BF326822B15568334658
:103970001646A542F8D30A68964212D0D3F800C082
:1039800037682A1B112A1F603FD333195D0719D0EE
:103990004FF0500080F31188BFF36F8FBFF34F8F4C
:1039A000FEE7002400F012FD600708D04FF0500041
:1039B00080F31188BFF36F8FBFF34F8FFEE7204670
:1039C00001B0F0BD44F2A825C2F200055A6074604F
:1039D0002C462D689D42FBD36268A7189F4203D1F5
:1039E0005B681A44234662605A689F18AF4201D050
:1039F000294606E009688D4203D0D5E900152A441E
:103A00005A609C42196018BF236044F274217268A6
:103A1000DEF80030C2F200010C689A1AA242CEF819
:103A2000002038BF0A60007844F280227168C2F238
:103A30000002002818BF41F00041136800200CF17B
:103A40000804C6E90001581C1060ABE7034643F6C2
:103A50007D0021F00101C0F600004FF0807C03E9F9
:103A600003106FF00201A3F1440043E9091270470B
:103A7000D0E9013201699A60D1F804C082688445B6
:103A8000536008BF4A60002202610868013808607C
:103A90000868704744F22023C2F20003036044F236
:103AA0001C00C2F200000860802010607047000017
:103AB0004FF0FF31024642F8081F00214260C0E982
:103AC000032201607047000000210161704700007F
:103AD00080B5D1F800C01CF1010207D000F1080345
:103AE0009E465B681A686245FAD901E0D0F810E09A
:103AF000DEF8042008614A609160C1F808E0CEF861
:103B0000041001680131016080BD0000D0F800C0E0
:103B1000436808619A684B608A609A68996051604E
:103B20000CF1010101607047DFF80C00016841F4FD
:103B3000700101607047000088ED00E04FF0500018
:103B400080F31188BFF36F8FBFF34F8F40F20C00EB
:103B5000C2F2000001684A1C026001B170474EF6D3
:103B60000450CEF200000068000608BF70474FF016
:103B7000500080F31188BFF36F8FBFF34F8F00BFEA
:103B8000FEE7000040F20C00C2F20000016839B10B
:103B90000139016018BF7047002080F31188704719
:103BA0004FF0500080F31188BFF36F8FBFF34F8F3A
:103BB000FEE70000B0B5002808BFB0BD43F6EC71C9
:103BC000C2F20001097850F8042C002918BF4FF008
:103BD000004111420DD0A0F1080423689BB14FF0C1
:103BE000500080F31188BFF36F8FBFF34F8F00BF7A
:103BF000FEE74FF0500080F31188BFF36F8FBFF3E3
:103C00004F8F00BFFEE722EA010140F8041C054681
:103C100000F0F8F844F21801C2F2000155F8040C63
:103C20000B682A461844086044F2A821C2F2000139
:103C300008460968A142FBD34368C518A54204D1D0
:103C400052F8042C04461A4442606368E2188A421F
:103C500001D00A460AE040F2D822C2F200021268FD
:103C6000914203D0D1E9002119446160A042226051
:103C700018BF046044F28420C2F2000001680131E0
:103C80000160BDE8B04000F0A1BB00004EF21000A2
:103C9000CEF2000000210160816040F20001C2F21A
:103CA0000001096844F6D352C1F26202A1FB02127C
:103CB0004FF0FF3101EB9211416007210160704725
:103CC00070B5002852D043F6DC71C2F200010A68D8
:103CD0004AB14FF0500080F31188BFF36F8FBFF3EC
:103CE0004F8F00BFFEE70546086840F2D024013040
:103CF000086044F2D820C2F20000C2F20004066854
:103D000020680430FFF7B4FE60B9206843F6E4721F
:103D1000C06AC2F200020121136801FA00F023EA2E
:103D2000000010602068AD19456009D340F2DC2026
:103D3000C2F20000006821680431FFF7C9FE10E0FC
:103D400040F2D420C2F20000006821680431FFF77D
:103D5000BFFE44F27820C2F2000001688D4238BFF5
:103D6000056000F033FB002818BF70BD4EF604500C
:103D7000CEF200004FF080510160BFF34F8FBFF3D0
:103D80006F8F70BDB0B586B0002405A804A903AA42
:103D9000CDE90444FFF77EFEDDE90320059DCDE972
:103DA000004043F2BD70C0F6000014A1002302954C
:103DB00000F0C2F944F21C20C2F200000560DDB13F
:103DC0004FF0500080F31188BFF36F8FBFF34F8F18
:103DD00044F27820C2F200004FF0FF31016044F25B
:103DE000A420C2F200000121016044F2D820C2F2F6
:103DF0000000046000F052F806B0B0BD49444C45E4
:103E00000000000043F6DC70C2F2000001680131DE
:103E10000160704743F6DC70C2F20000006830B108
:103E200044F2DC20C2F2000001210160704744F23C
:103E3000DC20C2F200000021016043F6E470C2F20F
:103E400000000068B0FA80F0C0B2C0F11F0040F27C
:103E5000E02100EB8000C2F2000151F8202092B175
:103E600001EB8000416800F108024968914241601D
:103E700001D149684160406840F2D021C068C2F277
:103E80000001086070474FF0500080F31188BFF3C5
:103E90006F8FBFF34F8F00BFFEE70000B0B584B057
:103EA0004EF20040CEF200004CF27021C4F20F112D
:103EB000D0F800294B1C9A4209D14FF0500080F3F2
:103EC0001188BFF36F8FBFF34F8F00BFFEE7D0F8AD
:103ED00000298A4209D14FF0500080F31188BFF3C6
:103EE0006F8FBFF34F8F00BFFEE7017843F6BC72C0
:103EF0000291FF2101700178C2F200028DF80710D3
:103F00009DF8071001F05001117043F6C071C2F224
:103F1000000107220A609DF90720B2F1FF3F0CDC87
:103F2000062200BF0A609DF80730013A5B008DF859
:103F300007309DF90730002BF4D40A68032A3BD1DF
:103F40004FF440720A6002990170D0F8201941F4D0
:103F50007001C0F82019D0F8201941F07041C0F864
:103F60002019FFF793FE40F20C04C2F20004002572
:103F70002560FFF7D9FD4EF63470CEF200000168DF
:103F800041F040410160FFF765FCFFF743FF0395F7
:103F900020684FF0500181F31188BFF36F8FBFF39A
:103FA0004F8F013002D000BFFEE700BF039800280A
:103FB000FCD0002004B0B0BD4FF0500080F3118859
:103FC000BFF36F8FBFF34F8FFEE7000080B54FF058
:103FD000500080F31188BFF36F8FBFF34F8F00F055
:103FE00035F930B14EF60450CEF200004FF080515A
:103FF0000160002080F3118880BD000098B3F0B507
:1040000081B00546484348300E46FFF751FC044650
:1040100030B30027204684F84670002E18BF483081
:104020002060C4E90F56FFF789FD2068D4E90F121C
:10403000A76302FB0103013901FB0201C4E901038B
:10404000FF20E16084F8440084F8450004F110008A
:10405000FFF72EFD04F12400FFF72AFDFFF792FD84
:10406000204601B0F0BD4FF0500080F31188BFF33F
:104070006F8FBFF34F8F00BFFEE700002DE9F047C1
:1040800081469000984614460F46FFF711FC70B128
:1040900005465420FFF70CFC30B1064605634EB9C7
:1040A0004FF0FF30BDE8F0872846FFF783FD00267C
:1040B000002EF5D0306BDDE9085A00EB840004389F
:1040C000002120F0070406F1340086F851105FB19A
:1040D0007A5C42547A5C1AB10F2901F10101F7D1DF
:1040E000002086F8430000E001700027301D062DF7
:1040F00028BF0625F562C6E91157FFF7E5FC06F172
:104100001800FFF7E1FC85F00700B0612046494642
:10411000424636617662F76486F85070FFF796FC87
:1041200030603046BAF1000F18BFCAF80060FFF7E0
:10413000B7FA0120BDE8F0872DE9F04782B0DDF83D
:104140002CC0BCF1000F21D00C9C44B35427019724
:10415000019F542F2DD1DDF828A0019F022704F1E3
:104160003406C4F830C084F8517061B3002700BF32
:10417000CD5DF555CD5D1DB10F2F07F10107F7D1CD
:1041800081460020984684F8430020E04FF050001C
:1041900080F31188BFF36F8FBFF34F8FFEE74FF0AF
:1041A000500080F31188BFF36F8FBFF34F8F00BFB4
:1041B000FEE74FF0500080F31188BFF36F8FBFF31D
:1041C0004F8F00BFFEE781469846002030700CEB11
:1041D0008200043820F007070025201DBAF1060FE1
:1041E00028BF4FF0060AC4F82CA0C4E911A5FFF7B8
:1041F0006BFC04F11800FFF767FC8AF00700A06170
:1042000038464946424624616462E56484F8505069
:10421000FFF71CFC20602046FFF742FA204602B060
:10422000BDE8F08744F2A420C2F200000068002834
:1042300004BF0120704743F6DC70C2F20000006842
:10424000B0FA80F040094000704700002DE9F04FBF
:1042500081B043F6DC70C2F20000006840B144F265
:104260008820C2F200000168002401310160A9E049
:1042700044F2D820C2F2000001684E1C06602ED322
:1042800040F2D420C2F200000168096849B14FF041
:10429000500080F31188BFF36F8FBFF34F8F00BFC3
:1042A000FEE740F2DC22C2F20002016813680360FC
:1042B000116044F27C21C2F200010A6801320A60F6
:1042C0000168096821B10068C068C068406801E001
:1042D0004FF0FF3044F27821C2F20001086044F24E
:1042E0007821C2F20001086840F2D02A8642C2F268
:1042F000000A01D200244FE040F2D42BC2F2000B9E
:10430000DBF8000000240068E0B343F6E4790127FD
:10431000C2F2000920E000BFD8F82C00D9F8001044
:1043200007FA00F21143C9F8001040F2E02100EB57
:104330008000C2F2000101EB80002946FFF7E6FB96
:10434000D8F82C00DAF80010C96ADBF8002088429F
:10435000106828BF3C46C0B1DBF80000C068D0F848
:104360000C80454655F8040F864210D32846FFF7C7
:104370007FFBD8F828000028CED008F11800FFF7FE
:1043800077FBC9E74FF0FF3005E04FF0FF3044F214
:104390007821C2F200010860DAF8000040F2E02162
:1043A000C06AC2F2000100EB800051F82000012831
:1043B00044F2DC20C2F2000088BF0124006800281B
:1043C00018BF0124204601B0BDE8F08F2DE9F04F61
:1043D00081B043F6DC74C2F20004206868B1FFF7D4
:1043E000ADFB206801382060206880B10024FFF711
:1043F000C9FB204601B0BDE8F08F4FF0500080F3BC
:104400001188BFF36F8FBFF34F8F00BFFEE743F6F6
:10441000D470C2F2000000680028E7D044F28C2675
:10442000C2F20006306844F2DC280028C2F200081C
:1044300044D043F6E47540F2E02940F2D02A4FF030
:10444000010BC2F20005C2F20009C2F2000A00BF6D
:10445000F068C76807F11800FFF70AFB3C1D20460B
:10446000FFF706FBF86A29680BFA00F2114300EB2C
:104470008000296009EB80002146FFF747FBF86ABE
:10448000DAF80010C96A884228BFC8F800B030685E
:104490000028DDD197B140F2D420C2F200000168BB
:1044A000096821B10068C068C068406801E04FF049
:1044B000FF3044F27821C2F20001086044F28824FF
:1044C000C2F2000425685DB1012600BFFFF7BEFE01
:1044D000002818BFC8F80060013DF7D10020206017
:1044E000D8F8000000283FF481AF4EF60450CEF219
:1044F00000004FF080510160BFF34F8F0124BFF3E4
:104500006F8F74E74100080218BF04200A0E18BF1D
:1045100040F001004FF07F4232EA010108BF40F055
:104520000200012808BF05207047000010B54FF0B9
:104530000E412DED028BB0EE408A18EE100A01EB11
:104540004001B1F1145F5CD24FF0FE41B1EB400F7E
:1045500024BF9FED400AF0EE400A12D210F0004F47
:1045600019BFDFED3D0A9FED3D0ADFED3D0A9FEDEE
:104570003D0AFFEE001A81EE881AB0EE418A18EE6D
:10458000100A4FF0FC41B1EB400F1BD210F0004F6E
:10459000DFED351A9FED352A1DBFBEEE001A70EE15
:1045A000E10A30EE420AB6EE001A04BF70EEA10A2C
:1045B00030EE020A38EE412AF7EE001A48EE011AF0
:1045C00082EE218ADFED2A1A9FED2A2A28EE081AA8
:1045D00001EE212ADFED281A41EE021A9FED272A6B
:1045E00001EE212ADFED261A41EE021A28EE011A09
:1045F00001EE210A30EE080ABDEC028B30EE200AF3
:1046000010BD4FF0E441B1EB400F0CD918EE100A89
:10461000FFF778FF042808BF00F058F8B0EE480A0A
:10462000BDEC028B10BD4FF07F41B1EB400F07D2C4
:10463000B0EE480ABDEC028BBDE8104000F043B874
:1046400010F0004F14BF9FED0F0A9FED0F0ABDEC55
:10465000028B10BD000000000000C9BF22AAFDB9F6
:104660000000C93F22AAFD390060ED3EC30ACE37E3
:104670002DAD65BD8FB8D53D0FB511BE61C84C3E9F
:10468000A8AAAABEDB0FC9BFDB0FC93F10B52DED2D
:10469000028BB1EEC08A18EE100A20F00040C0F183
:1046A000FF40C00F0AD010EE100A20F00040C0F109
:1046B000FF40C00F04BF0120FBF7EAFEB0EE480A3E
:1046C000BDEC028B10BD30EE000A70479FED020A70
:1046D00020EE000A7047000000000010F1EE100A02
:1046E0004FF6FF71C0F2C03120EA010040F0407087
:1046F000E1EE100A70470000000000000000010217
:104700000304060708090000000001020304000674
:1047100010160006101664656661756C745461733A
:104720006B00000048470008000000201000000057
:10473000100200085847000810000020D85A000056
:1047400030020008000000000024F4000100000016
:0847500010000000AAAAAAAAA9
:04000005080001AD41
:00000001FF
