:020000040800F2
:10000000385B00207D02000875400008393B00087D
:1000100071400008A10500085550000800000000CC
:100020000000000000000000000000006141000826
:100030006D08000800000000F1400008E9410008D8
:10004000970200089702000897020008970200082C
:10005000970200089702000897020008970200081C
:10006000970200089702000897020008970200080C
:1000700097020008970200089702000897020008FC
:1000800097020008970200089702000897020008EC
:10009000A5050008B50500089702000897020008AA
:1000A00097020008970200089702000897020008CC
:1000B00097020008970200089702000897020008BC
:1000C00097020008970200089702000897020008AC
:1000D000970200089702000897020008970200089C
:1000E000970200089702000897020008970200088C
:1000F000970200089702000897020008970200087C
:10010000970200089702000897020008970200086B
:10011000970200089702000897020008970200085B
:1001200097020008C5060008970200089702000819
:10013000970200089702000897020008970200083B
:10014000C5050008D50500089702000897020008B9
:10015000970200089702000897020008455000081F
:10016000970200089702000897020008970200080B
:10017000970200089702000897020008000000009C
:1001800097020008970200089702000897020008EB
:1001900097020008970200089702000897020008DB
:1001A00000000000000000009702000800F002F8C4
:1001B00000F054F814A696E8000CB244B344DA45B3
:1001C00001D100F04BF8BAE80F000FA696E8300016
:1001D000A5EB040504EB0607AAEB0704A7F101074A
:1001E0004FEA15154FEA3414A4F10104AC4201D3CF
:1001F00000F034F813F0010F18BFFB1A43F00103AD
:1002000000F001F8DBE718477478000094780000EC
:10021000103A24BF78C878C1FAD8520724BF30C832
:1002200030C144BF04680C60704700007047000094
:100230000023002400250026103A28BF78C1FBD8EF
:10024000520728BF30C148BF0B6070471FB507F089
:10025000C6FB00F01BF91FBD10B510BD00F072F910
:100260001146FFF7F3FF05F061FC00F090F903B4CD
:10027000FFF7F2FF03BC05F055FC0000094880477A
:1002800009480047FEE7FEE7FEE7FEE7FEE7FEE778
:10029000FEE7FEE7FEE7FEE704480549054A064B90
:1002A00070470000CD420008AD010008384300202F
:1002B000385B0020385300203853002053EA020CEA
:1002C00000F069802DE9F04B4FF00006002B1FBFB6
:1002D000B3FA83F503FA05F424FA05F65E4012BF7B
:1002E0001643B2FA82F502FA05F4C5F120051EBFE5
:1002F00022FA05FC44EA0C04203556EA044C4FEA85
:10030000144418BF641C4FF000084FF000099042DD
:1003100071EB030C39D3002919BFB1FA81F701FA47
:1003200007F6B0FA80F700FA07F6C7F120071EBFFC
:1003300020FA07FC46EA0C062037B6FBF4FCA7EBD4
:100340000507103F07F01F0BCBF120062CFA06F62D
:100350000CFA0BFB44BFB3460026202FA4BF5E4619
:100360004FF0000B5BEA060C08BF4FF0010B19EBD6
:100370000B0948EB0608ABFB027C06FB02CC0BFB2F
:1003800003CCC01B71EB0C01C1E70B460246414692
:100390004846BDE8F08B13B5084318BF4FF0FF3057
:1003A0000146AFF30080BDE81C407047032A40F2CD
:1003B000308010F0030C00F0158011F8013BBCF107
:1003C000020F624498BF11F801CB00F8013B38BF1F
:1003D00011F8013BA2F1040298BF00F801CB38BF2D
:1003E00000F8013B11F0030300F07180083AC0F0FF
:1003F000088051F8043B083A51F804CBA0E80810F3
:10040000F5E7121D5CBF51F8043B40F8043BAFF325
:100410000080D20724BF11F8013B11F801CB48BF7F
:1004200011F8012B24BF00F8013B00F801CB48BFB5
:1004300000F8012B70474FF0000200B513469446B8
:100440009646203922BFA0E80C50A0E80C50B1F12C
:100450002001BFF4F7AF090728BFA0E80C5048BF40
:100460000CC05DF804EB890028BF40F8042B08BFDE
:10047000704748BF20F8022B11F0804F18BF00F8DA
:10048000012B7047704770477047000008487CB5E3
:100490007844009007487844009C0546019004E0A9
:1004A0002046016808448047241DAC42F8D17CBD39
:1004B000087600000676000010B500F03FF80068EE
:1004C00010BD10B5044600F039F8046010BD10B539
:1004D000203AC0F00B80B1E81850A0E81850B1E8FD
:1004E0001850A0E81850203ABFF4F5AF5FEA027C3C
:1004F00024BFB1E81850A0E8185044BF18C918C06C
:10050000BDE810405FEA827C24BF51F8043B40F80C
:10051000043B08BF7047D20728BF31F8023B48BFF1
:1005200011F8012B28BF20F8023B48BF00F8012B2F
:1005300070470000004870472000002000487047C6
:10054000200000207546FFF7F5FFAE46050069461E
:10055000534620F00700854618B020B5FFF79CFEF3
:10056000BDE820404FF000064FF000074FF00008B4
:100570004FF0000BAC46ACE8C009ACE8C009ACE8F1
:10058000C009ACE8C00921F007018D46704710B5DD
:100590000446AFF300802046BDE81040FFF767BE79
:1005A000FFE7FEE780B540F21010C2F2000000F055
:1005B0009BFA80BD80B540F21010C2F2000000F03E
:1005C00093FA80BD80B540F23810C2F2000000F00E
:1005D0008BFA80BD80B540F23810C2F2000000F006
:1005E00083FA80BD80B586B005900491FFE7059839
:1005F000049900F045F9002862D0FFE705980499B6
:1006000040F28002C2F2000202AB00F063F9002067
:100610000190FFE7019840F2E021C2F20001097861
:1006200088424CD2FFE70598019A40F2B401C2F229
:10063000000151F82210096888423BD1FFE740F2DF
:100640008000C2F200000068019A40F2B401C2F2D8
:10065000000151F82210496B88422BD1FFE7019924
:1006600040F2B400C2F2000050F82100D0F8390086
:10067000F8B1FFE740F28001C2F200010A69019B74
:1006800040F2B400C2F20000009050F8233083F82A
:100690003820019A50F822002C300A6902A9FFF78D
:1006A00085FE0098019950F82100D0F8391088474C
:1006B000FFE705E0FFE7019801300190AAE796E720
:1006C00006B080BD80B540F26010C2F2000000F0BC
:1006D000A1FE80BD82B001900198007810384AF6E2
:1006E000AB21CAF6AA21A0FB0110000900900099D5
:1006F00047F62C20C0F60000405C0199C8650098C0
:10070000042807D3FFE701990868042262F309006F
:10071000886506E00199086840F2FF3290438865D9
:10072000FFE70198806D02B07047000086B0059029
:1007300000208DF813000598806A03900598806961
:1007400010BBFFE70398029003281BD80299DFE84B
:1007500001F0020D0218059890F82F00C00720B193
:10076000FFE701208DF81300FFE70CE00598C06A51
:10077000B0F1C07F04D1FFE701208DF81300FFE73F
:1007800001E000E0FFE745E005988069B0F5005F13
:1007900025D1FFE70398019003281ED80199DFE8CF
:1007A00001F00206021101208DF8130016E00598F1
:1007B00090F82F00C00720B1FFE701208DF813004B
:1007C000FFE70BE00598C06AB0F1C07F04D1FFE7F6
:1007D00001208DF81300FFE700E0FFE719E0039820
:1007E0000090032804D3FFE70098032804D00EE00C
:1007F00001208DF813000BE0059890F82F00C0073A
:1008000020B1FFE701208DF81300FFE700E0FFE7CC
:10081000FFE7FFE79DF8130006B0704784B0039030
:1008200002910192009303980168086820F48020E7
:100830000860009803990968486003988068402818
:1008400009D1FFE701980399096888600298039924
:100850000968C86008E002980399096888600198EF
:1008600003990968C860FFE704B07047704700004B
:1008700072B6FFE7FEE7000081B0009001B070475C
:1008800084B00390029100200190039890F820001A
:100890008DF803009DF80300012805D0FFE79DF8BF
:1008A0000300022812D1FFE7029838B9FFE7039846
:1008B0000068C06800F00300019006E0039800683B
:1008C000006900F003000190FFE7FFE7019804B022
:1008D0007047000086B0049003910292019304983F
:1008E00090F820008DF803009DF80300012806D041
:1008F000FFE79DF80300022840F0E880FFE7039837
:1009000080B9FFE704980068C068800748B9FFE72E
:100910000499486A40F40010486201208DF81700DD
:10092000DDE00FE0049800680069800748B9FFE740
:100930000499486A40F40010486201208DF81700BD
:10094000CDE0FFE704980068039900EB0110D0F8B0
:10095000B00100F00400029988600298806858B9DC
:10096000FFE704980068039900EB0110D0F8B0018C
:10097000400D029908600AE004980068039900EBB2
:100980000110D0F8B001C00802994860FFE7049850
:100990000068039900EB0110D0F8B00100F00200EC
:1009A0000299C86004980068039900EB0110D0F820
:1009B000B40100F00F00082804D3FFE702990820D3
:1009C00008610BE004980068039900EB0110D0F86F
:1009D000B40100F00F0002990861FFE70498006875
:1009E000039900EB0110D0F8B40180B2000A02991B
:1009F000886104980068039900EB0110D0F8B401F5
:100A0000000C0299486104980068039900EB0110FA
:100A1000D0F8B8010199087004980068039900EBB8
:100A20000110D0F8B801000A0199487004980068D4
:100A3000039900EB0110D0F8B801000C01998870FF
:100A400004980068039900EB0110D0F8B801000E7B
:100A50000199C87004980068039900EB0110D0F860
:100A6000BC010199087104980068039900EB01101A
:100A7000D0F8BC01000A01994871049800680399F4
:100A800000EB0110D0F8BC01000C019988710498AA
:100A90000068039900EB0110D0F8BC01000E019929
:100AA000C871039838B9FFE704980168C86840F036
:100AB0002000C86006E004980168086940F0200042
:100AC0000861FFE700208DF8170008E00499486AE4
:100AD00040F48020486201208DF81700FFE79DF860
:100AE000170006B07047000080B58AB0099000205A
:100AF0000890099800684069079009980068406864
:100B00000690099800688068059009980068C06898
:100B1000049009980068006903900998006880694A
:100B200002909DF81C00C007002800F09480FFE7A9
:100B30009DF81400C00758B3FFE709980168012029
:100B400088609DF814008007002804D5FFE7099805
:100B500000F0B0FB1BE09DF814004007002805D50D
:100B6000FFE7089840F4006008900FE09DF814003B
:100B70000007002805D5FFE7089840F4805008904A
:100B800003E0099800F092FBFFE7FFE7FFE7FFE7CC
:100B90009DF81500C00760B3FFE7099801684FF49E
:100BA000807088609DF815008007002804D5FFE755
:100BB000099800F087FB1BE09DF81500400700280E
:100BC00005D5FFE7089840F4005008900FE09DF825
:100BD00015000007002805D5FFE7089840F480407D
:100BE000089003E0099800F069FBFFE7FFE7FFE7E3
:100BF000FFE79DF81600C00760B3FFE7099801689A
:100C00004FF4803088609DF816008007002804D5D6
:100C1000FFE7099800F05EFB1BE09DF81600400717
:100C2000002805D5FFE7089840F4004008900FE041
:100C30009DF816000007002805D5FFE7089840F446
:100C40008030089003E0099800F040FBFFE7FFE7E1
:100C5000FFE7FFE7FFE79DF81C000007002810D51D
:100C6000FFE79DF81000C006002809D5FFE70898A7
:100C700040F400700890099801681020C860FFE7F0
:100C8000FFE79DF81C00400700280FD5FFE79DF8FF
:100C900010000007002808D5FFE709980168082020
:100CA000C860099800F0E2FAFFE7FFE79DF81C0032
:100CB000800700280BD5FFE709980068C068800707
:100CC00020B1FFE7099800F0D5FAFFE7FFE79DF8AC
:100CD0001C004006002810D5FFE79DF80C00C00658
:100CE000002809D5FFE7089840F48060089009982B
:100CF000016810200861FFE7FFE79DF81C008006EF
:100D000000280FD5FFE79DF80C000007002808D544
:100D1000FFE70998016808200861099800F0B4FA13
:100D2000FFE7FFE79DF81C00C00600280BD5FFE792
:100D3000099800680069800720B1FFE7099800F072
:100D4000A7FAFFE7FFE79DF81E00800700280FD5F0
:100D5000FFE79DF81800C006002808D5FFE70998AE
:100D6000016810204860099800F09CFAFFE7FFE74F
:100D70009DF81E00C00778B1FFE79DF81800000736
:100D8000002808D5FFE709980168082048600998FD
:100D900000F0A4FAFFE7FFE79DF81D000006002819
:100DA00040F18D80FFE79DF818004007002840F1D2
:100DB0008180FFE79DF81D00C00750B1FFE79DF857
:100DC0000800C00728B1FFE7089840F0010008902C
:100DD000FFE79DF81D00800700280BD5FFE79DF871
:100DE00008008007002805D5FFE7089840F00200BA
:100DF0000890FFE79DF81D00400700280BD5FFE78E
:100E00009DF808004007002805D5FFE7089840F046
:100E100004000890FFE79DF81D000007002848D552
:100E2000FFE79DF8080010F0700F42D0FFE702982E
:100E300000F0700001460191102814D0FFE70198DE
:100E4000202815D0FFE70198302816D0FFE7019839
:100E5000402817D0FFE70198502818D0FFE70198E5
:100E6000602819D01DE0089840F00800089019E0AB
:100E7000089840F01000089014E0089840F0200016
:100E800008900FE0089840F0400008900AE00898A9
:100E900040F08000089005E0089840F480700890C9
:100EA00000E0FFE709980168886920F07000886118
:100EB000FFE7FFE70998016804204860FFE708980A
:100EC00048B1FFE7089A0999486A104348620998AF
:100ED000FFF7D2FCFFE70AB080BD000080B584B008
:100EE0000290029820B9FFE701208DF80F00E0E0A2
:100EF000029890F8200020B9FFE7029800F0DEF891
:100F0000FFE702980168086840F00100086000F0FF
:100F10003BFF0190FFE7029800684068C007A8B94E
:100F2000FFE700F031FF0199401A0B280DD3FFE7CE
:100F30000299486A40F4003048620299052081F81D
:100F4000200001208DF80F00B3E0E4E7029801686B
:100F5000086820F00200086000F016FF0190FFE72B
:100F60000298006840688007002815D5FFE700F068
:100F70000BFF0199401A0B280DD3FFE70299486A2D
:100F800040F4003048620299052081F820000120D9
:100F90008DF80F008DE0E3E70298007E012807D16D
:100FA000FFE702980168086840F08000086006E0EA
:100FB00002980168086820F080000860FFE7029846
:100FC000407E012807D1FFE702980168086840F0D9
:100FD0004000086006E002980168086820F04000C0
:100FE0000860FFE70298807E012807D1FFE702989A
:100FF0000168086840F02000086006E00298016877
:10100000086820F020000860FFE70298C07E0128F1
:1010100007D1FFE702980168086820F01000086017
:1010200006E002980168086840F010000860FFE7D9
:101030000298007F012807D1FFE70298016808683D
:1010400040F00800086006E002980168086820F097
:1010500008000860FFE70298407F012807D1FFE7FA
:1010600002980168086840F00400086006E00298F1
:101070000168086820F004000860FFE7029B196817
:101080005A689868D3F80CC040EA0C00D3F810C036
:1010900040EA0C005B691843013A1043C8610299A9
:1010A00000204862029A012182F820108DF80F007A
:1010B000FFE79DF80F0004B080BD000080B594B03C
:1010C000139000201290119010900F900E90139892
:1010D000006846F20041C4F20001884254D1FFE7A3
:1010E00040F29C00C2F2000001680131016000681A
:1010F000012812D1FFE7FFE700200D9043F64000E2
:10110000C4F20200016841F000710160006800F063
:1011100000700D900D98FFE7FFE7FFE700200C90AF
:1011200043F63000C4F20200016841F001010160A1
:10113000006800F001000C900C98FFE74FF4C050DD
:101140000E9002200F900120109003201190092092
:1011500012900020C4F202000EA900F005FC142039
:101160000590052106910022079200F0ABFE05983C
:1011700000F09EFE0699079A1520089000F0A2FE46
:10118000089800F095FE6FE01398006846F600019D
:10119000C4F20001884266D1FFE7FFE700200B9010
:1011A00043F64000C4F20200016841F08061016032
:1011B000006800F080600B900B98FFE740F29C0005
:1011C000C2F200000168013101600068012812D1FB
:1011D000FFE7FFE700200A9043F64000C4F2020058
:1011E000016841F000710160006800F000700A9031
:1011F0000A98FFE7FFE7FFE70020099043F6300079
:10120000C4F20200016841F002010160006800F0D0
:10121000020009900998FFE74FF440500E90022019
:101220000F9001201090032011900920129040F29D
:101230000040C4F202000EA900F096FB402001908D
:10124000052102910022039200F03CFE019800F07B
:101250002FFE0299039A4120049000F033FE049877
:1012600000F026FEFFE7FFE714B080BD81B00090DC
:1012700001B0704780B582B0019001980021FFF75E
:10128000B1F902B080BD000081B0009001B070479C
:1012900080B582B0019001980121FFF7A3F902B057
:1012A00080BD000081B0009001B0704781B0009017
:1012B00001B0704781B0009001B0704781B00090DC
:1012C00001B0704781B0009001B0704781B00090CC
:1012D00001B0704781B0009001B0704781B00090BC
:1012E00001B0704780B584B002900298806D019083
:1012F00000F04AFD0090029890F8350002280DD0C9
:10130000FFE7029980204865FFE70299002081F8F5
:101310003400FFE701208DF80F0055E002980168C6
:10132000086820F01600086002980168486920F0FB
:10133000800048610298006C20B9FFE70298806C39
:1013400038B1FFE702980168086820F008000860DB
:10135000FFE702980168086820F001000860FFE7D5
:10136000029800680068C007C8B1FFE700F00CFDF4
:101370000099401A062811D3FFE7029920204865FA
:101380000299032081F83500FFE70299002081F8D7
:101390003400FFE703208DF80F0015E0E0E7029826
:1013A000C16D3F208840019988600299012081F831
:1013B0003500FFE70299002081F83400FFE7FFE7DE
:1013C00000208DF80F00FFE79DF80F0004B080BDEE
:1013D00082B00090009890F83500022807D0FFE70F
:1013E00000998020486501208DF807000EE00099E3
:1013F000052081F8350000980168086820F0010098
:101400000860FFE700208DF80700FFE79DF8070060
:1014100002B0704780B586B005900020039040F27E
:101420000800C2F20000006848F2B511C1F64E3162
:10143000A0FB0110800A02900598806D0190019830
:101440000068049004980599C96DC84000070028F9
:101450001AD5FFE70598006800684007002812D5F4
:10146000FFE705980168086820F004000860059807
:10147000C16D08208840019988600599486D40F049
:1014800001004865FFE7FFE704980599C96DC8406A
:10149000C007A0B1FFE70598006840690006002872
:1014A0000CD5FFE70598C16D01208840019988603F
:1014B0000599486D40F002004865FFE7FFE7049892
:1014C0000599C96DC8404007002814D5FFE7059865
:1014D00000680068800700280CD5FFE70598C16DFB
:1014E00004208840019988600599486D40F0040007
:1014F0004865FFE7FFE704980599C96DC840C00635
:10150000002847D5FFE70598006800680007002815
:101510003FD5FFE70598C16D10208840019988608C
:10152000059800680068400300281AD5FFE7059871
:10153000006800680003002809D4FFE70598006CE4
:1015400020B1FFE70598016C8847FFE708E00598A0
:10155000806C20B1FFE70598816C8847FFE7FFE7C3
:1015600016E0059800680068C005002807D4FFE76A
:1015700005980168086820F008000860FFE70598F2
:10158000006C20B1FFE70598016C8847FFE7FFE793
:10159000FFE7FFE704980599C96DC8408006002859
:1015A00040F18D80FFE7059800680068C0060028BC
:1015B00040F18480FFE70598C16D202088400199A3
:1015C0008860059890F83500052834D1FFE7059824
:1015D0000168086820F016000860059801684869ED
:1015E00020F0800048610598006C20B9FFE705985D
:1015F000806C38B1FFE705980168086820F00800A2
:101600000860FFE70598C16D3F2088400199886018
:101610000599012081F83500FFE70599002081F840
:101620003400FFE70598006D20B1FFE70598016DD4
:101630008847FFE77BE005980068006840030028C2
:101640001AD5FFE70598006800680003002809D450
:10165000FFE70598406C20B1FFE70598416C88478B
:10166000FFE708E00598C06B20B1FFE70598C16B64
:101670008847FFE7FFE720E0059800680068C0059D
:10168000002811D4FFE705980168086820F01000D1
:1016900008600599012081F83500FFE705990020D1
:1016A00081F83400FFE7FFE70598C06B20B1FFE742
:1016B0000598C16B8847FFE7FFE7FFE7FFE705985D
:1016C000406DA0B3FFE70598406DC00730B3FFE75A
:1016D0000599052081F8350005980168086820F013
:1016E00001000860FFE703980130039002998842E7
:1016F00001D9FFE707E0FFE7059800680068C00729
:101700000028F0D1FFE70599012081F83500FFE7B7
:101710000599002081F83400FFE7FFE70598C06CC9
:1017200020B1FFE70598C16C8847FFE7FFE706B0E7
:1017300080BD000080B586B004900020039000F0CA
:1017400023FB0290049820B9FFE701208DF81700D1
:10175000A3E00498406A08B1FFE7FFE7049902207C
:1017600081F83500FFE70499002081F83400FFE795
:1017700004980168086820F001000860FFE70498F9
:1017800000680068C00790B1FFE700F0FDFA029919
:10179000401A06280AD3FFE70499202048650499D7
:1017A000032081F835008DF8170076E0E7E704980C
:1017B000006800680390039848F23F01CFF21001DF
:1017C00008400390049900914868D1F808C0CB689C
:1017D0000A6940EA0C00184310434A6910438A69B9
:1017E0001043CA691043096A0143039808430390F0
:1017F0000498406A042808D1FFE70499C86A096B75
:101800000143039808430390FFE70398049909688C
:1018100008600498006840690390039820F007006E
:1018200003900498416A0398084303900498406A1F
:1018300004281AD1FFE70498816A039808430390AB
:101840000498C06A80B1FFE70498FEF76FFF50B1BB
:10185000FFE70499402048650499012081F835008C
:101860008DF8170019E0FFE7FFE70398049909686E
:1018700048610498FEF72EFF01900498C16D3F2047
:10188000884001998860049900204865049A0121E4
:1018900082F835108DF81700FFE79DF8170006B0A5
:1018A00080BD000080B588B0069005910492039336
:1018B00000208DF80B000698806D0190FFE70698D8
:1018C00090F83400012804D1FFE702208DF81F00B2
:1018D00045E00699012081F83400FFE7FFE706980C
:1018E00090F8350001282BD1FFE70699022081F8F6
:1018F000350006990020486506980599049A039BCF
:10190000FEF78CFF0698C16D3F20884001998860E2
:1019100006980168086840F0160008600698006C98
:1019200038B1FFE706980168086840F008000860D1
:10193000FFE706980168086840F00100086009E0C8
:10194000FFE70699002081F83400FFE702208DF8B8
:101950000B00FFE79DF80B008DF81F00FFE79DF8D7
:101960001F0008B080BD000090B00F900E910020C5
:101970000C900B900A900D90FFE70D980F2800F245
:10198000E881FFE70D99012088400C900E980068CF
:101990000C9908400B900B980C99884240F0D48128
:1019A000FFE70E98406800F00300012807D0FFE72A
:1019B0000E98406800F0030002282FD1FFE70F982F
:1019C00080680A900D984100032000FA01F10A98FE
:1019D00088430A900E98C0680D99490000FA01F1F9
:1019E0000A9808430A900A980F9988600F984068EF
:1019F0000A900D99012000FA01F10A9888430A9093
:101A00000E984068C0F300100D9900FA01F10A9891
:101A100008430A900A980F994860FFE70E984068BB
:101A200000F00300032818D0FFE70F98C0680A9061
:101A30000D984100032000FA01F10A9888430A90AA
:101A40000E9880680D99490000FA01F10A98084340
:101A50000A900A980F99C860FFE70E98406800F056
:101A60000300022826D1FFE70F980D996FF00302BB
:101A700002EA51010844006A0A900D9800F007003C
:101A800081000F2000FA01F10A9888430A900E980D
:101A900000690D9901F00701890000FA01F10A9827
:101AA00008430A900A980F990D9B02EA53021144C9
:101AB0000862FFE70F9800680A900D984100032024
:101AC00000FA01F10A9888430A900E98406800F0E5
:101AD00003000D99490000FA01F10A9808430A90A1
:101AE0000A980F9908600E9880798007002800F006
:101AF0002A81FFE7FFE70020099043F64400C4F283
:101B00000200016841F480410160006800F48040F7
:101B100009900998FFE70D9820F0030043F60801AB
:101B2000C4F2010140580A900D9800F003008100B2
:101B30000F2000FA01F10A9888430A900F980021BB
:101B4000C4F20201884203D1FFE7002008907AE046
:101B50000F9840F20041C4F20201884203D1FFE72E
:101B6000012007906CE00F9840F60001C4F20201DA
:101B7000884203D1FFE7022006905EE00F9840F60E
:101B80000041C4F20201884203D1FFE7032005901F
:101B900050E00F9841F20001C4F20201884203D1E3
:101BA000FFE70420049042E00F9841F20041C4F2A4
:101BB0000201884203D1FFE70520039034E00F982B
:101BC00041F60001C4F20201884203D1FFE706207A
:101BD000029026E00F9841F60041C4F202018842CB
:101BE00003D1FFE70720019018E00F9842F20001AF
:101BF000C4F20201884203D1FFE7082000900AE006
:101C00000F9942F20042C4F202020A20914208BF38
:101C100009200090FFE700980190FFE701980290EB
:101C2000FFE702980390FFE703980490FFE704980A
:101C30000590FFE705980690FFE706980790FFE7F5
:101C400007980890FFE70898C0B20D9901F00301CA
:101C5000890000FA01F10A9808430A900A980D9940
:101C600021F0030143F60802C4F20102885043F652
:101C70000840C4F2010000680A900B990A98884352
:101C80000A900E988079C006002805D5FFE70B99C9
:101C90000A9808430A90FFE70A9843F60841C4F2FD
:101CA0000101086043F60C40C4F2010000680A908C
:101CB0000B990A9888430A900E988079800600282C
:101CC00005D5FFE70B990A9808430A90FFE70A98A1
:101CD00043F60C41C4F20101086043F60440C4F22B
:101CE000010000680A900B990A9888430A900E98A0
:101CF00080798007002805D5FFE70B990A980843EB
:101D00000A90FFE70A9843F60441C4F20101086013
:101D100043F60040C4F2010000680A900B990A984B
:101D200088430A900E988079C00728B1FFE70B9985
:101D30000A9808430A90FFE70A9843F60041C4F264
:101D400001010860FFE7FFE7FFE70D9801300D9004
:101D500013E610B07047000082B00190ADF8021099
:101D60008DF801209DF8010028B1FFE7BDF80200C1
:101D70000199886105E0BDF80200000401998861BD
:101D8000FFE702B07047000044F22000C2F20000FA
:101D90000068704740F21000C2F20000027844F27E
:101DA0002001C2F20001086810440860704700007A
:101DB00080B543F60041C4F20201086840F40070A7
:101DC0000860086840F480600860086840F480702B
:101DD0000860032000F090F80F2000F005F800F0F4
:101DE0003BF8002080BD000080B582B0009040F23A
:101DF0000800C2F20000006840F21001C2F20001C7
:101E00000A784FF47A71B1FBF2F1B0FBF1F000F017
:101E10000BFE20B1FFE701208DF8070018E00098C5
:101E20000F280DD8FFE700994FF0FF30002200F097
:101E300049F8009840F21401C2F20001086003E082
:101E400001208DF8070003E000208DF80700FFE770
:101E50009DF8070002B080BD80B582B0FFE700208A
:101E6000019043F64400C4F20200016841F480414D
:101E70000160006800F4804001900198FFE7FFE7EF
:101E80000020009043F64000C4F20200016841F0D7
:101E900080510160006800F0805000900098FFE7DA
:101EA0006FF001000F21002200F00CF802B080BD9D
:101EB00080B582B08DF807009DF9070003F0B6FDEC
:101EC00002B080BD80B586B08DF8170004910392F2
:101ED0000020029003F0C2FD02909DF917000190CE
:101EE00002980499039A02F0C7F80146019803F09A
:101EF000BDFD06B080BD000080B582B001900198A4
:101F000003F0D6FD02B080BD80B584B00020029001
:101F1000FFE70020019043F64000C4F20200016890
:101F200041F080510160006800F0805001900198FC
:101F3000FFE74021C4F20E2101200860FFF724FFD3
:101F40000290FFE747F20400C4F20000006800F4CA
:101F50008030B0F5803F0DD0FFE7FFF715FF029905
:101F6000401AB0F57A7F04D9FFE703208DF80F00FF
:101F700025E0E7E74421C4F20E2101200860FFF7C5
:101F800003FF0290FFE747F20400C4F2000000687C
:101F900000F40030B0F5003F0DD0FFE7FFF7F4FE8E
:101FA0000299401AB0F57A7F04D9FFE703208DF833
:101FB0000F0004E0E7E700208DF80F00FFE79DF831
:101FC0000F0004B080BD000080B584B00290019184
:101FD000029820B9FFE701208DF80F0021E1019858
:101FE00043F60041C4F20201096801F00F01884282
:101FF00012D9FFE7019943F60040C4F202000170D4
:10200000006800F00F000199884204D0FFE701202A
:102010008DF80F0005E1FFE702980078800700289F
:102020002AD5FFE7029800784007002809D5FFE786
:1020300043F60801C4F20201086840F4E050086069
:10204000FFE7029800780007002809D5FFE743F66C
:102050000801C4F20201086840F460400860FFE72C
:1020600043F60801C4F20201086820F0F000029A69
:10207000926810430860FFE702980078C0070028C4
:102080006ED0FFE702984068012811D1FFE743F6C0
:102090000000C4F20200006800F400310020B0EB40
:1020A000514F04D1FFE701208DF80F00B9E02CE07B
:1020B00002984068022805D0FFE70298406803288C
:1020C00011D1FFE743F60000C4F20200006800F0FF
:1020D00000710020B0EB516F04D1FFE701208DF8B3
:1020E0000F009EE010E043F60000C4F2020000681A
:1020F00000F002010020B0EB510F04D1FFE70120F6
:102100008DF80F008DE0FFE7FFE743F60801C4F20A
:102110000201086820F00300029A52681043086028
:10212000FFF732FE0090FFE743F60800C4F202001A
:10213000006800F00C0002994968B0EB810F0ED0E6
:10214000FFE7FFF721FE0099401A41F289318842EA
:1021500004D3FFE703208DF80F0062E0E4E7FFE718
:10216000019843F60041C4F20201096801F00F0131
:10217000884212D2FFE7019943F60040C4F2020000
:102180000170006800F00F000199884204D0FFE759
:1021900001208DF80F0044E0FFE702980078400727
:1021A00000280CD5FFE743F60801C4F202010868D5
:1021B00020F4E050029AD26810430860FFE70298CA
:1021C0000078000700280DD5FFE743F60801C4F2A8
:1021D0000201086820F46040029A126940EAC200D5
:1021E0000860FFE700F04CF843F60801C4F2020172
:1021F0000968C9B20A0947F61421C0F60001895CD2
:10220000C84040F20801C2F20001086040F2140028
:10221000C2F200000068FFF7E7FD00208DF80F0014
:10222000FFE79DF80F0004B080BD000040F20800F9
:10223000C2F200000068704780B5FFF7F7FF43F671
:102240000801C4F202010968C1F3822247F6242181
:10225000C0F60001895CC84080BD000080B5FFF772
:10226000E5FF43F60801C4F20201096889B24A0B8E
:1022700047F62421C0F60001895CC84080BD0000FB
:1022800080B586B00020059004900390029043F63C
:102290000800C4F20200006800F00C000146019141
:1022A00040B1FFE7019804280AD0FFE70198082809
:1022B0000CD04FE042F20040C0F2F40002904FE038
:1022C00041F60030C0F2B700029049E043F6040046
:1022D000C4F20200016801F03F010591006840026C
:1022E000002813D5FFE743F60400C4F2020000689B
:1022F000C0F3881041F60031C0F2B701A0FB010124
:10230000059A0023FDF7DAFF049012E043F604007B
:10231000C4F202000068C0F3881042F20041C0F22B
:10232000F401A0FB0101059A0023FDF7C7FF04900B
:10233000FFE743F60400C4F20200006800F44031F5
:10234000022000EBD130039004980399B0FBF1F028
:10235000029005E042F20040C0F2F4000290FFE774
:10236000029806B080BD000080B586B00490049845
:1023700020B9FFE701208DF8170050E3049800789A
:10238000C007002800F0A580FFE743F60800C4F26C
:102390000200006800F00C00042813D0FFE743F6A9
:1023A0000800C4F20200006800F00C0008281ED1EA
:1023B000FFE743F60400C4F2020000684002002870
:1023C00015D5FFE743F60000C4F20200006800F4F0
:1023D00000310020B0EB514F08D0FFE7049840686F
:1023E00020B9FFE701208DF8170018E370E0FFE740
:1023F00004984068B0F5803F09D1FFE743F600013B
:10240000C4F20201086840F48030086020E00498BB
:102410004068B0F5A02F0DD1FFE743F60001C4F2EC
:102420000201086840F480200860086840F48030A9
:1024300008600CE043F60001C4F20201086820F4D1
:1024400080300860086820F480200860FFE7FFE71C
:10245000FFE704984068E8B1FFE7FFF795FC0390B9
:10246000FFE743F60000C4F20200006800F4003108
:102470000020B0EB514F0CD1FFE7FFF785FC03992B
:10248000401A652804D3FFE703208DF81700C6E241
:10249000E7E71CE0FFF778FC0390FFE743F6000056
:1024A000C4F20200006800F400310020B0EB514F8C
:1024B0000CD0FFE7FFF768FC0399401A652804D3A6
:1024C000FFE703208DF81700A9E2E7E7FFE7FFE742
:1024D000FFE7049800788007002840F19680FFE726
:1024E00043F60800C4F20200006810F00C0F13D08D
:1024F000FFE743F60800C4F20200006800F00C0099
:1025000008282CD1FFE743F60400C4F2020000685B
:102510004002002823D4FFE743F60000C4F2020083
:10252000006800F002010020B0EB510F09D0FFE776
:102530000498C068012804D0FFE701208DF8170037
:102540006DE243F60001C4F20201086820F0F800D1
:10255000049A126940EAC2000860FFE754E0049858
:10256000C06870B3FFE70021C4F247210120086072
:10257000FFF70AFC0390FFE743F60000C4F20200F5
:10258000006800F002010020B0EB510F0CD1FFE712
:10259000FFF7FAFB0399401A032804D3FFE703204F
:1025A0008DF817003BE2E7E743F60001C4F20201B1
:1025B000086820F0F800049A126940EAC200086036
:1025C00021E00021C4F2472100200860FFF7DCFB76
:1025D0000390FFE743F60000C4F20200006800F039
:1025E00002010020B0EB510F0CD0FFE7FFF7CCFB4E
:1025F0000399401A032804D3FFE703208DF817003E
:102600000DE2E7E7FFE7FFE7FFE704980078000740
:1026100000284BD5FFE70498406918B3FFE740F660
:102620008061C4F2472101200860FFF7ADFB0390F1
:10263000FFE743F67400C4F20200006800F00201F4
:102640000020B0EB510F0CD1FFE7FFF79DFB039982
:10265000401A032804D3FFE703208DF81700DEE1BA
:10266000E7E722E040F68061C4F2472100200860DD
:10267000FFF78AFB0390FFE743F67400C4F2020001
:10268000006800F002010020B0EB510F0CD0FFE712
:10269000FFF77AFB0399401A032804D3FFE70320CE
:1026A0008DF81700BBE1E7E7FFE7FFE70498007844
:1026B0004007002840F1CE80FFE700208DF807009A
:1026C00043F64000C4F202000068C000002815D4A0
:1026D000FFE7FFE70020009043F64000C4F202004D
:1026E000016841F080510160006800F08050009066
:1026F0000098FFE701208DF80700FFE747F2000090
:10270000C4F200000068C005002822D4FFE747F2A9
:102710000001C4F20001086840F480700860FFF70F
:1027200033FB0390FFE747F20000C4F200000068AB
:10273000C00500280CD4FFE7FFF726FB0399401AD9
:10274000032804D3FFE703208DF8170067E1EAE7C9
:10275000FFE7FFE704988068012809D1FFE743F607
:102760007001C4F20201086840F0010008601FE037
:102770000498806805280DD1FFE743F67001C4F284
:102780000201086840F004000860086840F0010099
:1027900008600CE043F67001C4F20201086820F002
:1027A00001000860086820F004000860FFE7FFE708
:1027B000FFE704988068F8B1FFE7FFF7E5FA0390B8
:1027C000FFE743F67000C4F20200006800F0020167
:1027D0000020B0EB510F0ED1FFE7FFF7D5FA0399B8
:1027E000401A41F28931884204D3FFE703208DF873
:1027F000170014E1E5E71EE0FFF7C6FA0390FFE7D4
:1028000043F67000C4F20200006800F002010020EC
:10281000B0EB510F0ED0FFE7FFF7B6FA0399401A5D
:1028200041F28931884204D3FFE703208DF8170075
:10283000F5E0E5E7FFE79DF80700012809D1FFE78C
:1028400043F64001C4F20201086820F0805008609D
:10285000FFE7FFE704988069002800F0DC80FFE7CD
:1028600043F60800C4F20200006800F00C000828DB
:1028700000F08580FFE70498806902285CD1FFE7BB
:102880006021C4F2472100200860FFF77DFA039021
:10289000FFE743F60000C4F20200006800F0007198
:1028A0000020B0EB516F0CD0FFE7FFF76DFA0399F2
:1028B000401A032804D3FFE703208DF81700AEE089
:1028C000E7E70499C869D1F820C04B6A8A6A40EAF0
:1028D0000C0040EA8310D2034FF6FF739A43A2F52F
:1028E00080321043C96A40EA016043F60401C4F231
:1028F000020108606021C4F2472101200860FFF74F
:1029000043FA0390FFE743F60000C4F202000068B8
:1029100000F000710020B0EB516F0CD1FFE7FFF722
:1029200033FA0399401A032804D3FFE703208DF8F4
:10293000170074E0E7E721E06021C4F2472100209E
:102940000860FFF721FA0390FFE743F60000C4F2A6
:102950000200006800F000710020B0EB516F0CD055
:10296000FFE7FFF711FA0399401A032804D3FFE7A2
:1029700003208DF8170052E0E7E7FFE74AE00498EC
:102980008069012804D1FFE701208DF8170046E097
:1029900043F60400C4F202000068029004988069C3
:1029A000012831D0FFE7029800F480000499C9693A
:1029B000884229D1FFE7029800F03F000499096A94
:1029C000884221D1FFE7029847F6C0710840049978
:1029D000496AB0EB811F17D1FFE7029800F440303D
:1029E0000499896AC9034FF6FF729143A1F58031BA
:1029F000884209D1FFE7029800F070600499C96A23
:102A0000B0EB016F04D0FFE701208DF8170006E05E
:102A1000FFE7FFE7FFE700208DF81700FFE79DF8CD
:102A2000170006B080BD000080B582B0019001980B
:102A300001F0B0FB02B080BD85B003900291FFE7CA
:102A4000039890F83C00012804D1FFE702208DF89C
:102A500013007EE00399012081F83C00FFE7FFE7C7
:102A60000399022081F83D000398006840680190B6
:102A70000398006880680090019820F07000019031
:102A80000298016801980843019001980399096828
:102A90004860039800680021C4F2010188423CD0DC
:102AA000FFE703980068B0F1804F36D0FFE7039846
:102AB000006840F20041C4F2000188422DD0FFE7D7
:102AC0000398006840F60001C4F20001884224D057
:102AD000FFE70398006840F60041C4F20001884215
:102AE0001BD0FFE70398006840F20041C4F20101E7
:102AF000884212D0FFE70398006844F20001C4F254
:102B00000101884209D0FFE70398006841F60001FF
:102B1000C4F2000188420ED1FFE7009820F0800047
:102B2000009002984168009808430090009803992B
:102B300009688860FFE70399012081F83D00FFE7FD
:102B40000399002081F83C00FFE700208DF8130076
:102B5000FFE79DF8130005B07047000080B582B014
:102B60000090009820B9FFE701208DF807003FE0B2
:102B7000009890F83D0040B9FFE70099002081F8E7
:102B80003C00009800F038F8FFE70099022081F837
:102B90003D00009951F8040B01F0A2FB00990120BF
:102BA00081F84600FFE70099012081F83E00009976
:102BB00081F83F00009981F84000009981F84100B8
:102BC000FFE7FFE70099012081F84200009981F8B2
:102BD0004300009981F84400009981F84500FFE71F
:102BE0000099012081F83D0000208DF80700FFE7E3
:102BF0009DF8070002B080BD83B002900298006883
:102C000040F60001C4F20001884212D1FFE7FFE75D
:102C10000020019043F64000C4F20200016841F038
:102C200004010160006800F0040001900198FFE7D2
:102C30001BE00298006840F60041C4F2000188429F
:102C400012D1FFE7FFE70020009043F64000C4F2F6
:102C50000200016841F008010160006800F008000E
:102C600000900098FFE7FFE7FFE703B07047000020
:102C700080B586B00490039100208DF80B00FFE72B
:102C8000049890F83C00012804D1FFE702208DF859
:102C90001700ABE00499012081F83C00FFE7FFE753
:102CA0000499022081F83D00049800688068019032
:102CB000019820F077000190019820F47F40019066
:102CC00001980499096888600398006800900028BA
:102CD00072D0FFE7009810286ED0FFE700982028F8
:102CE0006AD0FFE70098302866D0FFE700984028B8
:102CF00055D0FFE70098502837D0FFE700986028AC
:102D000040D0FFE7009870280BD0FFE70098B0F59F
:102D1000805F05D0FFE70098B0F5005F16D052E065
:102D200055E004980068039B5A689968DB6801F0D5
:102D3000CBFB0498006880680190019840F0770010
:102D40000190019804990968886040E0049800683F
:102D5000039B5A689968DB6801F0B6FB0498016828
:102D6000886840F48040886031E004980068039AE5
:102D70005168D26801F094FD04980068502101F078
:102D8000BDFB24E004980068039A5168D26801F002
:102D9000AFFD04980068602101F0B0FB17E00498D3
:102DA0000068039A5168D26801F07AFD04980068BF
:102DB000402101F0A3FB0AE0049800680399096828
:102DC00001F09CFB03E001208DF80B00FFE7049964
:102DD000012081F83D00FFE70499002081F83C00C4
:102DE000FFE79DF80B008DF81700FFE79DF817002F
:102DF00006B080BD80B58CB00B9000200A90099081
:102E00000890079006900B98006840F60001C4F205
:102E10000001884222D1FFE7FFE70020059043F63A
:102E20003000C4F20200016841F00801016000684E
:102E300000F0080005900598FFE74FF470400690F9
:102E4000022007900021089109910A9040F6004065
:102E5000C4F2020006A9FEF787FD4EE00B98006859
:102E600040F60041C4F20001884245D1FFE7FFE788
:102E70000020049043F63000C4F20200016841F4DF
:102E800080710160006800F4807004900498FFE78E
:102E9000FFE70020039043F63000C4F2020001680F
:102EA00041F080010160006800F080000390039809
:102EB000FFE7012006900220019007900021009179
:102EC000089109910A9042F20000C4F2020006A99A
:102ED0000291FEF749FD009A019802994FF4E053E0
:102EE00006930790089209920A9041F60040C4F2B6
:102EF0000200FEF739FDFFE7FFE70CB080BD0000E0
:102F000080B586B004900391029200208DF80700EE
:102F1000FFE7049890F83C00012804D1FFE7022065
:102F20008DF8170089E00499012081F83C00FFE743
:102F3000FFE7029800900C2800F270800099DFE80B
:102F400001F0076D6D6D206D6D6D3A6D6D6D530007
:102F500004980068039901F0E7FA04980168886909
:102F600040F00800886104980168886920F0040036
:102F70008861039802690498016888691043886130
:102F800050E004980068039901F044FB049801683C
:102F9000886940F40060886104980168886920F4B9
:102FA000806088610398026904980168886940EA32
:102FB0000220886136E004980068039901F0A4FBC0
:102FC00004980168C86940F00800C8610498016865
:102FD000C86920F00400C861039802690498016878
:102FE000C8691043C8611DE004980068039901F0A6
:102FF00005FC04980168C86940F40060C861049841
:103000000168C86920F48060C86103980269049867
:103010000168C86940EA0220C86103E001208DF818
:103020000700FFE7FFE70499002081F83C00FFE775
:103030009DF807008DF81700FFE79DF8170006B010
:1030400080BD000080B582B00090009820B9FFE7F5
:1030500001208DF807003FE0009890F83D0040B94E
:10306000FFE70099002081F83C00009800F038F854
:10307000FFE70099022081F83D00009951F8040B08
:1030800001F02EF90099012081F84600FFE7009930
:10309000012081F83E00009981F83F00009981F8F5
:1030A0004000009981F84100FFE7FFE70099012007
:1030B00081F84200009981F84300009981F84400AA
:1030C000009981F84500FFE70099012081F83D0053
:1030D00000208DF80700FFE79DF8070002B080BDD3
:1030E00081B0009001B0704780B58CB00A90099112
:1030F000099828B9FFE70A9890F83E0007901CE06D
:103100000998042805D1FFE70A9890F83F00069037
:1031100010E00998082805D1FFE70A9890F84000C8
:10312000059004E00A9890F841000590FFE70598A3
:103130000690FFE706980790FFE70798012804D05C
:10314000FFE701208DF82F00AFE0099828B9FFE7CD
:103150000A99022081F83E001EE00998042806D151
:10316000FFE70A99022081F83F00049012E00998D5
:10317000082806D1FFE70A99022081F84000039051
:1031800005E00A99022081F841000390FFE70398C7
:103190000490FFE70498FFE70A9800680999012264
:1031A000019201F075F901980A9909680022C4F2A8
:1031B0000102914202900CD0FFE70A9800684FF696
:1031C0000041CBF6FE710844B0FA80F0400902904D
:1031D000FFE70298C00738B1FFE70A980168486C1A
:1031E00040F400404864FFE70A9800680021C4F2F8
:1031F000010188423CD0FFE70A980068B0F1804F97
:1032000036D0FFE70A98006840F20041C4F200019E
:1032100088422DD0FFE70A98006840F60001C4F20A
:103220000001884224D0FFE70A98006840F6004178
:10323000C4F2000188421BD0FFE70A98006840F200
:103240000041C4F20101884212D0FFE70A980068E9
:1032500044F20001C4F20101884209D0FFE70A9854
:10326000006841F60001C4F20001884212D1FFE774
:103270000A980068806800F00700089008980628FF
:1032800007D0FFE70A980168086840F0010008606D
:10329000FFE706E00A980168086840F0010008604E
:1032A000FFE700208DF82F00FFE79DF82F000CB0FE
:1032B00080BD000080B586B004900391ADF80A206F
:1032C000049890F8420020284DD1FFE7039820B1E0
:1032D000FFE7BDF80A0020B9FFE701208DF81700CD
:1032E00045E004990120086304990020486304988C
:1032F0000399BDF80A2001F0D5FD8DF809009DF86D
:10330000090058BBFFE70498006B012821D1FFE7B3
:10331000FFE700200190049800680068019004987D
:103320000068406801900198FFE7FFE7FFE7049815
:10333000006850E8030F40F010000090FFE700998C
:103340000498026842E803100028F0D1FFE7FFE785
:1033500003E001208DF80900FFE7FFE79DF8090071
:103360008DF8170003E002208DF81700FFE79DF8A5
:10337000170006B080BD000080B584B00390ADF8A2
:103380000A1000208DF80900FFE79DF8090040F2BF
:10339000E121C2F200010978884254DAFFE703987C
:1033A0009DF8092044F21401C2F2000151F82210E4
:1033B000D1F8041188423FD1FFE79DF8091044F28B
:1033C0001400C2F2000050F82100D0F80801B0B19A
:1033D000FFE79DF8091044F21400C2F200000190CA
:1033E00050F82100D0F80801804701989DF8091095
:1033F00050F82100BDF80A10FDF71DF8FFE79DF811
:10340000091044F21400C2F20000009050F821109C
:10341000D1F8040191F80021FFF74CFF00989DF8C6
:10342000091050F82100D0F80401C06B0168086849
:1034300020F00800086006E0FFE79DF80900013071
:103440008DF80900A1E704B080BD000080B584B00C
:10345000039000208DF80B00FFE79DF80B0040F271
:10346000E121C2F200010978884232DAFFE70398CD
:103470009DF80B2044F21401C2F2000151F8221011
:10348000D1F8041188421DD1FFE79DF80B1044F2DA
:103490001400C2F20000019050F82110D1F804018C
:1034A00091F80021FFF706FF01989DF80B1050F8E6
:1034B0002100D0F80401C06B0168086820F0080002
:1034C000086006E0FFE79DF80B0001308DF80B0067
:1034D000C3E704B080BD000080B592B01190119890
:1034E00000680068109011980068C0680F901198EB
:1034F000006840690E9000200D900C90109800F02C
:103500000F000D900D9888B9FFE79DF840008006E8
:1035100000280AD5FFE79DF83C008006002804D566
:10352000FFE7119801F06AFBEAE1FFE70D98002838
:1035300000F0C280FFE79DF83800C00738B9FFE708
:10354000BDF83C0010F4907F00F0B680FFE79DF8D6
:103550004000C00758B1FFE79DF83D00C00730B1FB
:10356000FFE71199486C40F001004864FFE79DF8BF
:103570004000400700280BD5FFE79DF83800C00742
:1035800030B1FFE71199486C40F002004864FFE752
:103590009DF84000800700280BD5FFE79DF8380014
:1035A000C00730B1FFE71199486C40F0040048644F
:1035B000FFE79DF840000007002811D5FFE79DF8C0
:1035C0003C008006002805D4FFE79DF83800C007BE
:1035D00030B1FFE71199486C40F008004864FFE7FC
:1035E0001198406C002866D0FFE79DF840008006E7
:1035F00000280AD5FFE79DF83C008006002804D586
:10360000FFE7119801F0FAFAFFE7119800684069A6
:10361000C0F380100C901198406C0007002804D46F
:10362000FFE70C9800283ED0FFE7119801F06CFAF4
:10363000119800684069400600282FD5FFE7FFE792
:10364000FFE71198006850E8050F20F040000B904C
:10365000FFE70B991198026842E805100028F0D1A5
:10366000FFE7FFE71198C06B98B1FFE71198C16BB6
:1036700044F64510C0F6000008651198C06BFDF7D0
:10368000A7FE28B1FFE71198C06B016D8847FFE7DF
:1036900003E01198FFF7DAFEFFE703E01198FFF768
:1036A000D5FEFFE706E01198FFF7D0FE1199002044
:1036B0004864FFE7FFE723E11198006B012840F021
:1036C000FF80FFE79DF84000C006002840F1F88029
:1036D000FFE79DF83C00C006002840F1F180FFE7BD
:1036E000FFE700200A901198006800680A9011987E
:1036F000006840680A900A98FFE7119800684069DE
:103700004006002840F18280FFE71198C06B0068F6
:103710004068ADF82600BDF82600002875D0FFE708
:10372000BDF826001199898D88426EDAFFE7BDF851
:1037300026001199C8851198C06BC069B0F5807FCB
:1037400058D0FFE7FFE7FFE71198006850E8030F44
:1037500020F480700890FFE708991198026842E809
:1037600003100028F0D1FFE7FFE7FFE7FFE711981C
:10377000006850E8050F20F001000790FFE7079967
:103780001198026842E805100028F0D1FFE7FFE732
:10379000FFE7FFE71198006850E8050F20F04000B0
:1037A0000690FFE706991198026842E80510002884
:1037B000F0D1FFE7FFE71199202081F8420011992D
:1037C00000200863FFE7FFE71198006850E8030F47
:1037D00020F010000590FFE705991198026842E873
:1037E00003100028F0D1FFE7FFE71198C06BFDF749
:1037F00079FDFFE71199022048631198818DC28DF0
:10380000891A89B2FFF7B8FDFFE779E01199888D31
:10381000C98D401AADF812001198C08D00284ED005
:10382000FFE7BDF81200002849D0FFE7FFE7FFE7F8
:103830001198006850E8030F20F490700390FFE7A0
:1038400003991198026842E803100028F0D1FFE7BD
:10385000FFE7FFE7FFE71198006850E8050F20F049
:1038600001000290FFE702991198026842E80510F2
:103870000028F0D1FFE7FFE71199202081F84200EE
:10388000119900200863FFE7FFE71198006850E8EE
:10389000030F20F010000190FFE7019911980268D2
:1038A00042E803100028F0D1FFE7FFE7119902205A
:1038B00048631198BDF81210FFF75EFDFFE71FE0A7
:1038C0009DF84000000600280AD5FFE79DF83C005F
:1038D0000006002804D5FFE7119801F069FB0FE00E
:1038E0009DF84000400600280AD5FFE79DF83C00FF
:1038F0004006002804D5FFE7119801F04FF9FFE7D3
:1039000012B080BD80B582B00090009820B9FFE76A
:1039100001208DF8070040E00098806908B1FFE7BA
:1039200000E0FFE7009890F8410040B9FFE70099F8
:10393000002081F84000009800F034F8FFE700997B
:10394000242081F8410000980168C86820F40050E4
:10395000C860009801F008FA00980168086920F42E
:103960009040086100980168486920F02A00486189
:1039700000980168C86840F40050C86000990020B1
:103980004864009A202182F84110009A82F842107F
:10399000009948638DF80700FFE79DF8070002B023
:1039A00080BD000080B58EB00D9000200C900B9073
:1039B0000A90099008900D98006844F60001C4F23E
:1039C0000001884235D1FFE7FFE70020079043F66A
:1039D0004000C4F20200016841F4802101600068E7
:1039E00000F4802007900798FFE7FFE7002006908B
:1039F00043F63000C4F20200016841F008010160A2
:103A0000006800F0080006900698FFE74FF4407049
:103A100008900220099000200A9003200B900720B4
:103A20000C9040F60040C4F2020008A9FDF79CFF8C
:103A300073E00D98006841F20041C4F20101884230
:103A40006AD1FFE7FFE70020059043F64400C4F287
:103A50000200016841F020010160006800F02000D0
:103A600005900598FFE7FFE70020049043F630003B
:103A7000C4F20200016841F040010160006800F0FA
:103A8000400004900498FFE74FF48440089002201F
:103A90000990002002900A9003200B9008200C90BF
:103AA00041F60000C4F2020008A9FDF75DFF02998B
:103AB00040F26010C2F20000039046F22842C4F2C5
:103AC000020202604FF0206242608160C1604FF4E8
:103AD0008062026141618161C1614FF480320262A2
:103AE0004162FDF727FE18B1FFE7FCF7C1FEFFE7D3
:103AF000FFE70D9840F26011C2F20001C1630D981A
:103B00008863FFE74720019005210022FEF7DAF9DC
:103B10000198FEF7CDF9FFE7FFE70EB080BD00008A
:103B200081B0009001B0704781B0009001B0704743
:103B300081B0009001B07047FFE7FEE780B582B02A
:103B400040F21010C2F20000019046F20041C4F2AF
:103B5000000101600921416000218160C1604FF4D2
:103B6000803202614FF48012426101760122427676
:103B70008176C27601774177FDF7B0F918B1FFE79A
:103B8000FCF776FEFFE702B080BD000080B582B092
:103B900040F23810C2F20000019046F60001C4F273
:103BA000000101600921416000218160C1604FF482
:103BB000803202614FF48012426101760122427626
:103BC0008176C27601774177FDF788F918B1FFE772
:103BD000FCF74EFEFFE702B080BD000080B582B06A
:103BE000FFE70020019043F63000C4F202000168B4
:103BF00041F480010160006800F4800001900198A8
:103C0000FFE73920009005210022FEF75BF90098BC
:103C1000FEF74EF902B080BD10B588B047F6F81037
:103C2000C0F60000016842688368D0F80CC0D0F884
:103C300010E044690694CDF814E0CDF810C0039369
:103C4000029201918069079001A8002102F012F907
:103C500040F20C11C2F20001086008B010BD000073
:103C600080B592B00020119010900F900E900D90A2
:103C7000FFE700200C9043F63000C4F20200016818
:103C800041F040010160006800F040000C900C9889
:103C9000FFE7FFE700200B9043F63000C4F202007C
:103CA000016841F001010160006800F001000B9023
:103CB0000B98FFE7FFE700200A9043F63000C4F2BC
:103CC0000200016841F480710160006800F48070B6
:103CD0000A900A98FFE7FFE70020099043F63000BA
:103CE000C4F20200016841F080010160006800F048
:103CF000800009900998FFE7FFE70020089043F64D
:103D00003000C4F20200016841F00801016000685F
:103D100000F0080008900898FFE7FFE700200790F0
:103D200043F63000C4F20200016841F00201016074
:103D3000006800F0020007900798FFE742F20000D9
:103D4000C4F2020001904FF400710091002204922D
:103D5000FEF702F8049A41F60040C4F20200059012
:103D60003C210291FDF7F8FF009A019804990D9209
:103D7000012203920E920F9110910DA90691FDF769
:103D8000F3FDDDF808C0039B049A05980699CDF869
:103D900034C00E930F921092FDF7E6FD12B080BD75
:103DA00080B58EB0002100910D910C910B910A917C
:103DB000099108910791069105910491039102914F
:103DC000019140F2C010C2F2000040F60002C4F2BD
:103DD0000002026059224260816042F20F72C260AA
:103DE000016180218161FEF7B9FE18B1FFE7FCF7A0
:103DF0003FFDFFE74FF480500A9040F2C010C2F23E
:103E000000000AA9FEF734FF18B1FFE7FCF730FD08
:103E1000FFE740F2C010C2F20000FFF713F918B13B
:103E2000FFE7FCF725FDFFE700200890099040F22E
:103E3000C010C2F2000008A9FEF7FEFD18B1FFE7AE
:103E4000FCF716FDFFE7602001900022029203922A
:103E5000059240F2C010C2F2000001A9FFF750F82D
:103E600018B1FFE7FCF704FDFFE740F2C010C2F213
:103E7000000001A90422FFF743F818B1FFE7FCF79F
:103E8000F7FCFFE740F2C010C2F2000001A90822CF
:103E9000FFF736F818B1FFE7FCF7EAFCFFE740F25E
:103EA000C010C2F2000001A90C22FFF729F818B1D6
:103EB000FFE7FCF7DDFCFFE740F2C010C2F20000B4
:103EC000FEF798FF0EB080BD80B58EB00021009146
:103ED0000D910C910B910A9109910891079106910E
:103EE0000591049103910291019140F20820C2F2E0
:103EF000000040F60042C4F2000202605922426013
:103F0000816042F20F72C260016180218161FEF71F
:103F100025FE18B1FFE7FCF7ABFCFFE74FF480503C
:103F20000A9040F20820C2F200000AA9FEF7A0FEA3
:103F300018B1FFE7FCF79CFCFFE740F20820C2F253
:103F40000000FFF77FF818B1FFE7FCF791FCFFE7EF
:103F500000200890099040F20820C2F2000008A951
:103F6000FEF76AFD18B1FFE7FCF782FCFFE760206F
:103F70000190002202920392059240F20820C2F2C0
:103F8000000001A9FEF7BCFF18B1FFE7FCF770FCC9
:103F9000FFE740F20820C2F2000001A90422FEF768
:103FA000AFFF18B1FFE7FCF763FCFFE740F2082022
:103FB000C2F2000001A90822FEF7A2FF18B1FFE734
:103FC000FCF756FCFFE740F20820C2F2000001A90E
:103FD0000C22FEF795FF18B1FFE7FCF749FCFFE75D
:103FE00040F20820C2F20000FEF704FF0EB080BDD0
:103FF00080B582B040F25020C2F20000019044F639
:104000000001C4F2000101604FF4E1314160002180
:104010008160C16001610C2242618161C161FFF771
:1040200071FC18B1FFE7FCF723FCFFE702B080BD8D
:1040300080B582B040F29820C2F20000019041F2B7
:104040000041C4F2010101604FF4E13141600021FF
:104050008160C16001610C2242618161C161FFF731
:1040600051FC18B1FFE7FCF703FCFFE702B080BD8D
:10407000FFE7FEE7FFE7FEE788B0079006910592AD
:10408000079800F0070004900498C0F10700052885
:1040900003D3FFE70420019004E00498C0F1070077
:1040A0000190FFE70198039004980430062803D894
:1040B000FFE70020009003E0049803380090FFE73A
:1040C0000098029006980399012202FA01F1013941
:1040D0000840029B984005999A40013A11400843D4
:1040E00008B0704700000000000000000000000061
:1040F000EFF30980BFF36F8F154B1A681EF0100F96
:1041000008BF20ED108A20E9F04F10602DE909006A
:104110004FF0500080F31188BFF34F8FBFF36F8FC4
:1041200002F0CEFD4FF0000080F31188BDE80900D9
:1041300019680868B0E8F04F1EF0100F08BFB0EC27
:10414000108A80F30988BFF36F8F704700BF00BFEC
:10415000E402002000000000000000000000000059
:10416000074B19680868B0E8F04F80F30988BFF37F
:104170006F8F4FF0000080F31188704700BF00BFC1
:10418000E402002080B582B00190FFE7012001F039
:1041900057FEFBE780B582B0009000980138B0F17F
:1041A000807F03D3FFE70120019019E000980138D8
:1041B0004EF21401CEF2000108604FF0FF300F21E3
:1041C00001F054FC4EF21801CEF20001002008600C
:1041D0004EF21002CEF20002072111600190FFE7BB
:1041E000019802B080BD000080B5FDF7D3FD02F05C
:1041F00049FF012803D0FFE702F06EFEFFE780BD14
:1042000080B594B008A83021FCF715F9002007907C
:104210000690059004900390FFE70020029043F67B
:104220004000C4F20200016841F080510160006862
:1042300000F0805002900298FFE7FFE70020019015
:1042400047F20000C4F20000016841F440410160FF
:10425000006800F4404001900198FFE701200890B9
:104260004FF48030099002200E904FF480010F919E
:1042700006211091B421119112900420139008A8E6
:10428000FEF772F818B1FFE7FCF7F2FAFFE7FDF767
:104290003BFE18B1FFE7FCF7EBFAFFE70F200390B6
:1042A00002200490002005904FF4A05006904FF497
:1042B0008050079003A80521FDF786FE18B1FFE79F
:1042C000FCF7D6FAFFE714B080BD00004EF6885127
:1042D000CEF20001086840F47000086070470000EA
:1042E00083B002900191029800680090029800212A
:1042F000C4F20101884225D0FFE70298B0F1804F57
:1043000020D0FFE7029840F20041C4F20001884249
:1043100018D0FFE7029840F60001C4F2000188427D
:1043200010D0FFE7029840F60041C4F20001884235
:1043300008D0FFE7029840F20041C4F20101884230
:104340000AD1FFE7009820F07000009001984168C2
:10435000009808430090FFE702980021C4F2010191
:10436000884255D0FFE70298B0F1804F50D0FFE768
:10437000029840F20041C4F20001884248D0FFE7B1
:10438000029840F60001C4F20001884240D0FFE7E5
:10439000029840F60041C4F20001884238D0FFE79D
:1043A000029840F20041C4F20101884230D0FFE798
:1043B000029844F20001C4F20101884228D0FFE7CC
:1043C000029844F20041C4F20101884220D0FFE784
:1043D000029844F60001C4F20101884218D0FFE7B8
:1043E000029841F60001C4F20001884210D0FFE7B4
:1043F000029841F60041C4F20001884208D0FFE76C
:10440000029842F20001C4F2000188420AD1FFE79B
:10441000009820F4407000900198C168009808430B
:104420000090FFE7009820F0800001994969084357
:104430000090009802990860019880680299C8620B
:10444000019800680299886202980021C4F2010173
:10445000884208D0FFE7029840F20041C4F201010F
:10446000884205D1FFE70198006902990863FFE7D8
:1044700002990120486102980069C00730B1FFE746
:104480000299086920F001000861FFE703B0704756
:1044900084B0039002910192029800F01F01012064
:1044A00088400090009A0399086A90430862019836
:1044B000029901F01F0100FA01F20399086A104302
:1044C000086204B07047000085B004900391029226
:1044D0000193049880680090009820F47F40009039
:1044E00003980299019A41EA022101430098084386
:1044F000009000980499886005B0704783B00290DE
:104500000191029880680090009820F0700000905F
:1045100001980099084340F0070000900098029924
:10452000886003B07047000085B004900391049840
:10453000006A01900499086A20F00100086204985A
:1045400040680090049880690290029820F0700002
:104550000290029820F003000290039801680298EC
:1045600008430290019820F00200019003988168AE
:1045700001980843019004980021C4F20101884287
:1045800008D0FFE7049840F20041C4F201018842DC
:104590000ED1FFE7019820F0080001900398C16850
:1045A000019808430190019820F004000190FFE772
:1045B00004980021C4F20101884208D0FFE7049862
:1045C00040F20041C4F20101884213D1FFE7009894
:1045D00020F480700090009820F400700090039800
:1045E0004169009808430090039881690098084346
:1045F0000090FFE700980499486002980499886148
:10460000039840680499486301980499086205B0CA
:104610007047000085B0049003910498006A0190EF
:104620000499086A20F0100008620498406800901D
:10463000049880690290029820F4E0400290029869
:1046400020F44070029003980168029840EA01202B
:104650000290019820F02000019003988168019851
:1046600040EA0110019004980021C4F2010188423F
:1046700008D0FFE7049840F20041C4F201018842EB
:104680000FD1FFE7019820F0800001900398C168E6
:10469000019840EA01100190019820F0400001903B
:1046A000FFE704980021C4F20101884208D0FFE727
:1046B000049840F20041C4F20101884215D1FFE79D
:1046C000009820F480600090009820F40060009032
:1046D00003984169009840EA81000090039881693D
:1046E000009840EA81000090FFE700980499486034
:1046F0000298049988610398406804998863019836
:104700000499086205B0704785B00490039104983D
:10471000006A01900499086A20F480700862049885
:10472000406800900498C0690290029820F07000E0
:104730000290029820F0030002900398016802980A
:1047400008430290019820F400700190039881685A
:10475000019840EA0120019004980021C4F201016F
:10476000884208D0FFE7049840F20041C4F20101FA
:1047700088420FD1FFE7019820F400600190039870
:10478000C168019840EA01200190019820F48060FE
:104790000190FFE704980021C4F20101884208D08B
:1047A000FFE7049840F20041C4F20101884215D1AC
:1047B000FFE7009820F480500090009820F400500B
:1047C000009003984169009840EA01100090039816
:1047D0008169009840EA01100090FFE70098049971
:1047E000486002980499C861039840680499C863B6
:1047F00001980499086205B07047000085B00490E4
:1048000003910498006A01900499086A20F480508A
:1048100008620498406800900498C0690290029869
:1048200020F4E0400290029820F440700290039837
:104830000168029840EA01200290019820F400509B
:10484000019003988168019840EA01300190049832
:104850000021C4F20101884208D0FFE7049840F229
:104860000041C4F2010188420BD1FFE7009820F417
:104870008040009003984169009840EA81100090C0
:10488000FFE700980499486002980499C86103986A
:1048900040680499086401980499086205B070475B
:1048A00085B00490039102920498006A00900499E4
:1048B000086A20F00100086204988069019001985C
:1048C00020F0F00001900299019840EA0110019057
:1048D000009820F00A000090039900980843009087
:1048E00001980499886100980499086205B070479E
:1048F00085B00490039102920498006A0090049994
:10490000086A20F0100008620498806901900198FC
:1049100020F4704001900299019840EA0130019022
:10492000009820F0A00000900399009840EA011040
:10493000009001980499886100980499086205B074
:104940007047000080B582B001900198806B0090A4
:1049500000990020C8850099C8840098FEF776FD6C
:1049600002B080BD80B584B003900020029003980F
:10497000806B0190019800684069C0B2C009029044
:10498000019890F8410021280AD1FFE7029838B138
:10499000FFE701990020C884019800F013F9FFE7B0
:1049A000019800684069C0F380100290019890F867
:1049B000420022280AD1FFE7029838B1FFE70199A7
:1049C0000020C885019800F09FF8FFE70199486C26
:1049D00040F0100048640198FEF738FD04B080BD37
:1049E00080B586B005900598806B049005980068A6
:1049F0000068C00500285AD4FFE704990020C88544
:104A0000FFE7FFE70498006850E8030F20F4807088
:104A10000390FFE703990498026842E80310002816
:104A2000F0D1FFE7FFE7FFE7FFE70498006850E8F1
:104A3000050F20F001000290FFE702990498026838
:104A400042E805100028F0D1FFE7FFE7FFE7FFE7A6
:104A50000498006850E8050F20F040000190FFE73F
:104A600001990498026842E805100028F0D1FFE798
:104A7000FFE70499202081F842000498006B012888
:104A800014D1FFE7FFE7FFE70498006850E8030F41
:104A900020F010000090FFE700990498026842E8B7
:104AA00003100028F0D1FFE7FFE7FFE7FFE70499D5
:104AB000002048630498006B012805D1FFE70498A3
:104AC000818DFEF759FC03E00498FFF729F8FFE712
:104AD00006B080BD80B582B001900198806B0090D7
:104AE0000099012048630098006B012806D1FFE778
:104AF0000098818D4908FEF73FFC03E00098FFF71E
:104B000013F8FFE702B080BD84B00390FFE7FFE732
:104B10000398006850E8030F20F490700290FFE7BC
:104B200002990398026842E803100028F0D1FFE7D9
:104B3000FFE7FFE7FFE70398006850E8050F20F064
:104B400001000190FFE701990398026842E805100F
:104B50000028F0D1FFE7FFE70398006B012814D18C
:104B6000FFE7FFE7FFE70398006850E8030F20F036
:104B700010000090FFE700990398026842E80310D4
:104B80000028F0D1FFE7FFE7FFE70399202081F835
:104B9000420003990020086304B0704780B582B0DA
:104BA000019001980168C86820F04000C860019930
:104BB000202081F841000198FEF7BAFF002002B0E2
:104BC00080BD000082B00190FFE7FFE70198006818
:104BD00050E8030F20F0C0000090FFE70099019813
:104BE000026842E803100028F0D1FFE7FFE70199CF
:104BF000202081F8410002B07047000080B586B0E7
:104C00000490049890F84200222840F0A480FFE726
:104C100004988068B0F5805F15D1FFE704980069BB
:104C200088B9FFE7002003900498806A02900498F6
:104C3000006840686FF35F20029908800499886AD1
:104C40000230886225E00498806A03900020029078
:104C500004988068B0F5805F08D0FFE7049880680A
:104C600050B9FFE70498006930B9FFE7049800687D
:104C700040680399087007E004980068406800F0F5
:104C80007F0003990870FFE70499886A0130886201
:104C9000FFE70499C88D0138C8850004002856D163
:104CA000FFE704980168C86820F02000C8600498F5
:104CB0000168C86820F48070C86004980168486979
:104CC00020F0010048610499202081F842000499F5
:104CD000002048630498006B012830D1FFE7049955
:104CE00000200863FFE7FFE70498006850E8030F1F
:104CF00020F010000190FFE701990498026842E853
:104D000003100028F0D1FFE7FFE70498006800686F
:104D1000C00600280ED5FFE7FFE7002000900498AA
:104D2000006800680090049800684068009000984F
:104D3000FFE7FFE70498818DFEF71EFB03E0049870
:104D4000FEF7EEFEFFE700208DF8170007E00020D9
:104D50008DF8170003E002208DF81700FFE79DF89B
:104D6000170006B080BD000080B586B0059005989C
:104D70000068006920F44050059A1168D268104319
:104D80000861059988680B694A69C9691843104325
:104D90000843049005980068C06849F20C61884394
:104DA0000499084305990968C86005980068406936
:104DB00020F44070059A1168926910434861059883
:104DC000006841F20001C4F20101884209D0FFE706
:104DD0000598006841F20041C4F20101884204D103
:104DE000FFE7FDF73BFA039003E0FDF725FA039098
:104DF000FFE70598C069B0F5004F29D1FFE7039898
:104E00001921A0FB0101059A1368029353685A0007
:104E1000DB0FFBF753FA0299864648F21F53C5F29F
:104E2000EB13AEFB0320420910014FF0640C02FBB0
:104E30001CEC322202EBCC02A2FB0332F82303EA81
:104E4000521300EB4300C2F342121044886026E084
:104E500003981921A0FB0101059A13680193536877
:104E60009A009B0FFBF72AFA0199844648F21F52D9
:104E7000C5F2EB12ACFB02304309642003FB10CCFB
:104E8000322000EB0C10A0FB0202F02000EA5210CE
:104E900000EB0310C2F3431210448860FFE706B032
:104EA00080BD000080B588B007900691ADF816204F
:104EB000069807998862BDF81600079988850799B2
:104EC00000204864079A222182F842100799CA6B91
:104ED00044F6E111C0F60001D1630799CA6B44F6AC
:104EE000D521C0F6000111640799CA6B44F665111B
:104EF000C0F60001D1640799C96B086506A8049043
:104F000007980168C06B0431049A1268BDF8163026
:104F1000FCF7C8FCFFE700200390079800680068D2
:104F2000039007980068406803900398FFE707988C
:104F30000069A0B1FFE7FFE7FFE70798006850E8C6
:104F4000030F40F480700290FFE70299079802680F
:104F500042E803100028F0D1FFE7FFE7FFE7FFE793
:104F6000FFE70798006850E8050F40F00100019046
:104F7000FFE701990798026842E805100028F0D180
:104F8000FFE7FFE7FFE7FFE70798006850E8050F36
:104F900040F040000090FFE700990798026842E85F
:104FA00005100028F0D1FFE7FFE7002008B080BD22
:104FB00083B00190019890F8410021283AD1FFE791
:104FC00001988068B0F5805F13D1FFE70198006910
:104FD00078B9FFE70198006A0090009800886FF3A5
:104FE0005F200199096848600199086A02300862E7
:104FF00008E0019A106A411C116200780199096861
:105000004860FFE70199C88C0138C884000468B97A
:10501000FFE701980168C86820F08000C860019827
:105020000168C86840F04000C860FFE700208DF8C4
:105030000B0003E002208DF80B00FFE79DF80B004A
:1050400003B0704780B540F29820C2F20000FEF72E
:1050500043FA80BDFFE7FEE780B500F047FD80BD65
:1050600080B582B00190FFE7322001F081FDFBE7BF
:1050700080B582B00190FFE740F28030C2F20000BC
:1050800090F82000012822D1FFE740F2AC30C2F2B4
:10509000000090F82000012819D1FFE744F2380001
:1050A000C2F2000090ED000A44F23030C2F200007B
:1050B000D0ED000A44F22C30C2F2000090ED001A4C
:1050C00040F2F400C2F2000000F082FAFFE7142080
:1050D00001F04EFDD0E7000080B582B00190FFE7FF
:1050E00040F20C00C2F2000090ED000A40F2803065
:1050F000C2F2000000F018F8C82001F039FDEFE717
:1051000080B582B00190FFE740F20C00C2F20000CF
:1051100090ED000A40F2AC30C2F2000000F004F85A
:10512000C82001F025FDEFE780B58CB00B908DED28
:105130000A0A0B980690002109910891079190EDB9
:10514000000A90ED011AB4EE410AF1EE10FA0EDDFC
:10515000FFE7069890ED000A90ED011A30EE410A43
:10516000B2EE041A80EE010A8DED050A0DE00698F4
:1051700090ED001A90ED010A30EE410AB2EE041AE9
:1051800080EE010A8DED050AFFE706989DED050A00
:105190008DED080A002180F8201090ED000A90EDB6
:1051A000011AB4EE410AF1EE10FA40F3A780FFE7CE
:1051B000069840680790FFE706989DED070A90ED76
:1051C000001AB4EE410AF1EE10FA00F39380FFE703
:1051D000069890F82100A8B9FFE79DED070A9FED1A
:1051E000A51A20EE010A9FEDA41A30EE010ABDEEC9
:1051F000C00A10EE100A00EE100AB8EEC00A8DEDDB
:10520000090A1FE0069890F82100012819D1FFE74C
:105210009DED071A9FED960A30EE410A9FED951A13
:1052200020EE010A9FED941A30EE010ABDEEC00A8D
:1052300010EE100A00EE100AB8EEC00A8DED090A51
:10524000FFE7FFE70698806A60B9FFE706989DEDE3
:10525000090ABCEEC00A10EE101A406A006840F855
:10526000341F35E00698806A04280DD1FFE70698C0
:105270009DED090ABCEEC00A10EE101A406A0068E3
:1052800040F8381F049021E00698806A08280DD164
:10529000FFE706989DED090ABCEEC00A10EE101A51
:1052A000406A006840F83C1F03900CE006989DEDB2
:1052B000090ABCEEC00A10EE101A406A006840F8F5
:1052C000401F0390FFE703980490FFE70498FFE76F
:1052D0009DED0A0ABCEEC00A10EE100A01F048FC6F
:1052E000FFE79DED081A9DED070A30EE010A8DEDEE
:1052F000070A61E7069908684860B2E0069890EDF1
:10530000000A90ED011AB4EE410AF1EE10FA80F2B3
:10531000A780FFE7069840680790FFE706989DED95
:10532000070A90ED001AB4EE410AF1EE10FAC0F24D
:105330009380FFE7069890F82100A8B9FFE79DED5C
:10534000070A9FED4C1A20EE010A9FED4B1A30EE32
:10535000010ABDEEC00A10EE100A00EE100AB8EE07
:10536000C00A8DED090A1FE0069890F82100012877
:1053700019D1FFE79DED071A9FED3D0A30EE410A76
:105380009FED3C1A20EE010A9FED3B1A30EE010A18
:10539000BDEEC00A10EE100A00EE100AB8EEC00A08
:1053A0008DED090AFFE7FFE70698806A60B9FFE71D
:1053B00006989DED090ABCEEC00A10EE101A406A6C
:1053C000006840F8341F35E00698806A04280DD143
:1053D000FFE706989DED090ABCEEC00A10EE101A10
:1053E000406A006840F8381F029021E00698806A01
:1053F00008280DD1FFE706989DED090ABCEEC00A0A
:1054000010EE101A406A006840F83C1F01900CE052
:1054100006989DED090ABCEEC00A10EE101A406A0B
:10542000006840F8401F0190FFE701980290FFE7F5
:105430000298FFE79DED0A0ABCEEC00A10EE100AC2
:1054400001F096FBFFE79DED081A9DED070A30EE8F
:10545000410A8DED070A61E7069908684860FFE791
:10546000FFE70699012081F820000CB080BD00BF45
:10547000000034438FC231410000FA4380B58CB044
:10548000DDF838C00A90099108928DF81F308DED33
:10549000060ACDED050A8DED041ACDED031A0A9921
:1054A00002910B9109984862089888620020086070
:1054B000486088600E98C860059848610698086141
:1054C000049888610398C861486A896AFDF70CFEF0
:1054D00002989DF81F1080F82110806AB0B9FFE78C
:1054E000029890ED030AB8EEC00A9FED371A20EE3D
:1054F000010A9FED361A30EE010ABDEEC00A10EE29
:10550000101A406A006840F8341F53E00298806A1D
:10551000042817D1FFE7029890ED030AB8EEC00AFD
:105520009FED291A20EE010A9FED281A30EE010A9C
:10553000BDEEC00A10EE101A406A006840F8381F2D
:10554000019035E00298806A082817D1FFE7029899
:1055500090ED030AB8EEC00A9FED1B1A20EE010A77
:105560009FED1A1A30EE010ABDEEC00A10EE101AB5
:10557000406A006840F83C1F009016E0029890EDE9
:10558000030AB8EEC00A9FED101A20EE010A9FED43
:105590000F1A30EE010ABDEEC00A10EE101A406A72
:1055A000006840F8401F0090FFE700980190FFE777
:1055B0000198FFE7029890ED030AB8EEC00A80ED6B
:1055C000010A0B980CB080BDA8C631410000FA4317
:1055D00080B596B015908DED140ACDED130A8DEDC2
:1055E000121A159809901499016013994160129943
:1055F00081600021119110910F9190ED000A90EDC2
:10560000011A21EE011A20EE000A30EE010A00F024
:10561000F5F98DED0E0A9DED0E2A40F20400C2F25E
:10562000000090ED001A21EE013A22EE020A30EE5F
:10563000030A40F20001C2F2000191ED003A23EEAC
:10564000033A30EE430A31EE011A21EE021A80EEDF
:10565000010A8DED0D0A9DED0E2A91ED000A20EE56
:10566000001A22EE020A30EE010A90ED001A21EE35
:10567000013A30EE430A31EE011A21EE021A80EEB1
:10568000010A8DED0C0A9DED140AB5EE400AF1EE0B
:1056900010FA18D1FFE79DED130AB5EE400AF1EEBE
:1056A00010FA10D1FFE70998C16891ED030AB8EE2E
:1056B000C00A81ED000A006990ED030AB8EEC00A45
:1056C00080ED000A6FE19DED140AB5EE400AF1EE9F
:1056D00010FA40F36781FFE79DED130AB5EE400A2B
:1056E000F1EE10FA40F35E81FFE7099890ED001AA1
:1056F00090ED010A80EE010A00F076F909988DED2F
:10570000110AD0ED000A90ED010AB1EE400A00F056
:105710007FF98DED070A9DED0D0A00F05BF9099800
:10572000B0EE401A9DED070A30EE010A8DED0F0A2A
:10573000D0ED000A90ED010A00F06AF98DED080A3B
:105740009DED0C0A00F046F90998B0EE401A9DED67
:10575000080A30EE010A8DED100A90ED000A9FED67
:10576000931A80EE010A8DED0B0A90ED010A80EE8E
:10577000010A8DED0A0A9DED0B2A22EE010A9DED2C
:105780000A3A23EE011A21EE031A20EE020A30EE45
:10579000010AB2EE021AB4EE410AF1EE10FA80F2FA
:1057A000A880FFE79DED0A4A8DED004A9DED0B3A7A
:1057B00024EE041A23EE030A30EE010A9FED7B2A41
:1057C0008DED012A23EE021A24EE022A22EE042A8B
:1057D00021EE031A31EE022AB2EE021A8DED021A00
:1057E00031EE421A20EE010A00F008F99DED002A80
:1057F000B0EE081A8DED031A22EE012A30EE420AAD
:105800009DED0B4AB2EE042A8DED042A24EE023AF5
:1058100024EE011A23EE043A31EE431A9DED0A3AC2
:1058200023EE022A22EE032A31EE421A80EE010A0A
:1058300000F0DAF89DED013A9DED021A30EE000A13
:105840009FED5B2A8DED062A20EE020A40F204400D
:10585000C2F2000080ED000A9DED0A5A8DED055A56
:105860009DED0B4A25EE052A24EE040A30EE020ACD
:1058700024EE032A25EE033A23EE053A22EE042A0B
:1058800032EE032A31EE421A20EE010A00F0B6F899
:105890009DED033A9DED041AB0EE402A9DED050AF8
:1058A00020EE030A30EE420A9DED0B4A24EE012A57
:1058B00024EE033A22EE042A32EE032A9DED0A3A40
:1058C00023EE011A21EE031A31EE021A80EE010ACC
:1058D00000F08AF89DED061AB8EE002A20EE020AC2
:1058E00020EE010A40F20840C2F2000080ED000AFA
:1058F000FFE709989DED100AC06890ED071AB4EE15
:10590000410AF1EE10FA05DDFFE70998C168C869A0
:1059100008601AE009989DED100AC06890ED061A1B
:10592000B4EE410AF1EE10FA05DAFFE70998C16812
:105930008869086008E0099940F20440C2F200005A
:105940000068C9680860FFE7FFE709989DED0F0A46
:10595000006990ED071AB4EE410AF1EE10FA05DD88
:10596000FFE709980169C86908601AE009989DED88
:105970000F0A006990ED061AB4EE410AF1EE10FA32
:1059800005DAFFE7099801698869086008E0099964
:1059900040F20840C2F20000006809690860FFE7B1
:1059A000FFE7FFE7FFE716B080BD00BF0000C84279
:1059B0003333654283B002900191009202980199BD
:1059C000C16000990161002101604160816003B004
:1059D0007047000080B582B08DED010A9DED010A8F
:1059E00001F018FD02B080BD80B582B08DED010AD6
:1059F0009DED010A01F0F0FE02B080BD80B582B0DD
:105A00008DED010A9DED010A01F096FF02B080BD07
:105A100080B582B08DED010ACDED000A9DED010A41
:105A2000DDED000A01F082FD02B080BD81B08DF88D
:105A300003009DF9030000280ED4FFE79DF9031031
:105A400001F01F02012090404A094EF20011CEF2EF
:105A5000000141F82200FFE701B070474EF60C50FC
:105A6000CEF200000068C0F30220704782B08DF8CB
:105A7000070000919DF9070000280AD4FFE700986D
:105A800000019DF907104EF20042CEF20002885448
:105A90000BE0009800019DF8071001F00F014EF691
:105AA0001452CEF200028854FFE702B070470000A3
:105AB00083B00290029800F0070000904EF60C515F
:105AC000CEF200010868019001984FF6FF021040E5
:105AD00001900198009A40EA02200022C0F2FA5296
